:020000040800F2
:10000000A005002011020008BF2400081B180008EA
:10001000BD24000841030008452900080000000035
:10002000000000000000000000000000C3240008E1
:100030004303000800000000C1240008C524000894
:100040002B0200082B0200082B0200082B020008DC
:100050002B0200082B0200082B0200082B020008CC
:100060002B0200082B0200082B0200082B020008BC
:100070002B0200082B0200082B0200082B020008AC
:100080002B0200082B0200082B0200082B0200089C
:100090002B0200082B0200082B0200082B0200088C
:1000A0002B0200082B0200082B0200082B0200087C
:1000B0002B0200082B0200082B0200082B0200086C
:1000C0002B020008291800081D1800082B02000840
:1000D0002B020008392900082B0200082B02000817
:1000E0002B0200082B0200082B0200082B0200083C
:1000F0002B0200082B0200082B0200082B0200082C
:100100002B0200082B0200082B0200082B0200081B
:100110002B0200082B0200082B0200082B0200080B
:100120002B0200082B0200082B0200082B020008FB
:100130002B0200082B0200082B0200082B020008EB
:100140002B0200082B0200082B0200082B020008DB
:100150002B0200082B0200082B0200082B020008CB
:100160002B0200082B0200082B0200082B020008BB
:100170002B0200082B0200082B02000800000000E0
:100180002B0200082B0200082B0200082B0200089B
:100190002B0200082B0200082B0200082B0200088B
:1001A0002B0200082B0200082B0200082B0200087B
:1001B0002B0200082B0200082B0200082B0200086B
:1001C0002B0200082B020008000000002B02000890
:1001D0002B0200082B0200082B0200082B0200084B
:1001E0002B0200082B0200082B0200082B0200083B
:1001F0002B0200082B020008DFF810D000F08EF868
:1002000000F05CF80048004749370008A0050020CE
:100210000648804706480047FEE7FEE7FEE7FEE7A0
:10022000FEE7FEE7FEE7FEE7FEE7FEE7C92400087B
:10023000F90100082DE9F05F0546002092469B4633
:1002400088460646814640241BE0284641464746EC
:10025000224600F052F853465A46C01A914110D334
:1002600011461846224600F039F82D1A67EB0108AE
:100270004F4622460120002100F030F817EB00091C
:100280004E41201EA4F10104DFDC484631462A46D7
:100290004346BDE8F09FD2B201E000F8012B491EB1
:1002A000FBD270470022F6E710B513460A46044613
:1002B0001946FFF7F0FF204610BD000070B5054C51
:1002C000054D03E0206820448047241DAC42F9D14D
:1002D00070BD00000C3C0008103C0008202A04DB24
:1002E000203A00FA02F1002070479140C2F1200349
:1002F00020FA03F3194390407047202A04DB203A88
:1003000021FA02F00021704721FA02F3D040C2F135
:10031000200291400843194670470000064C074DE3
:1003200006E0E06840F0010394E8070098471034C5
:10033000AC42F6D3FFF764FFEC3B00080C3C00082E
:10034000FEE77047704790F83510022903D08021EE
:10035000416501207047052180F83510006801686B
:1003600021F00101016000207047000070B50446D3
:1003700000F006F90546601C02D0044800780444E9
:1003800000F0FEF8401BA042FAD370BD80000020B0
:100390002DE9F84F00224FF001094FF0030A4FF00A
:1003A0000F0E00BF0B6809FA02F42340A34270D17C
:1003B0004D68012D05D0022D03D0112D01D0122D35
:1003C00011D185685700CE680AFA07FC25EA0C05AA
:1003D000BE402E43866045680E79A543C6F30016DD
:1003E00096402E434660C56856008F680AFA06F4A8
:1003F000A543B7402F43C7604D68022D01D0122D91
:1004000012D1D5080F694FEA427C00EB8505AB4657
:100410002D6A4FEADC6C0EFA0CF807FA0CF725EAA5
:1004200008052F43CBF820700D79076805F0030508
:10043000A743B5403D4305604C68E40074D53D4C8E
:10044000256845F480452560246822F00307960757
:1004500004F480440094384C360F2744D7F80848F9
:10046000DFF8D8C00EFA06F5604524EA050401D18C
:1004700000252EE0324DA84201D1012529E0314D61
:10048000A84201D1022524E02F4DA84202D1032524
:100490001FE049E02D4DA84201D1042519E02C4D63
:1004A000A84201D1052514E02A4DA84201D1062514
:1004B0000FE0294DA84201D107250AE0274DA842A7
:1004C00001D1082505E0264DA84201D1092500E00B
:1004D0000A25B540234E2543C7F808584D683468AF
:1004E000ED0324EA030400D51C431E4D34602D1D8A
:1004F0004E682C68B60324EA030400D51C43194E49
:100500002C6008364D683468ED0224EA030400D5F7
:100510001C43144D34600C354E682C68B60224EA36
:10052000030400D51C432C60521C102AFFF43AAF80
:10053000BDE8F88F4438024000300140000002401E
:100540000004024000080240000C0240001002407B
:100550000014024000180240001C0240002002402B
:1005600000240240003C014042690A4200D00904D4
:10057000816170470AB1816170470904FBE700009F
:1005800001488068704700008000002030B590F876
:100590004120202A24D190F84020012A20D0012394
:1005A00080F84030242280F8412020230024026873
:1005B000156825F0010515600268156825F4805559
:1005C0001560026815680D43156001680A6842F0FD
:1005D00001020A6080F8413080F84040002030BDC0
:1005E000022030BD30B590F84120202A22D190F869
:1005F0004020012A1ED0012380F84030242280F8B8
:100600004120202400250268136823F001031360B1
:100610000268136823F4706343EA012111600168E2
:100620000A6842F001020A6080F8414080F84050B8
:10063000002030BD022030BD7047704730B40368E1
:100640009A691968D243D40509D4CC43240606D448
:10065000456C4FF4807445F001054564DC61530539
:100660000AD4CB431B0607D4446C4FF4806344F098
:10067000080444640468E36192050AD4C943090686
:1006800007D4426C4FF4007142F0020242640268E7
:10069000D161416C11F00B0F02D030BC01F08EB96A
:1006A00030BC70470268436B91691268002B00D020
:1006B00018477047704790F84100704770B50400C4
:1006C00004D094F84100002510B106E0012070BD6F
:1006D000204684F8405000F013F9242084F84100AB
:1006E0002068016821F001010160D4E9001020F0C8
:1006F000706008612068816821F400418160E068D1
:1007000021680128A06806D040F404408860E068B1
:10071000022803D006E040F40040F7E721684FF4D8
:100720000060486020212068114A436813434360F9
:100730002068C26822F40042C26054F8106B0DCCED
:10074000104340EA0320F06054F81C3CD4E9000256
:100750001043186054F81C0D026842F00102026058
:10076000656484F84110256384F84250002070BD10
:100770000080000270477047704770477047000064
:100780002DE9FC47044690F8410098469146DDE982
:100790000A768A4620284CD11FB316B32068806998
:1007A000C043000445D594F84000012841D0012001
:1007B00084F840002434FFF7E3FE0025222262770C
:1007C00040211D4A2760A1772562E680A260E28869
:1007D0001A492161243CFF2A07D9FF214FF0807676
:1007E00006E04FF4007060640FE0618D4FF000761A
:1007F00021851921CDE9001043464A46514620463D
:1008000001F006FC20B184F840500120BDE8FC87CF
:100810000B4833460090514694F82820204601F0BA
:1008200061FD0221204684F8405001F043F8002089
:10083000ECE70220EAE700000000FFFFE91E0008E5
:10084000002400802DE9FC47044690F841009846BA
:100850009146DDE90A758A4620284BD11FB315B3AE
:1008600020688069C043000444D594F84000012802
:1008700040D0012084F840002434FFF781FE002698
:100880002122627740211C4A2760A1772662E580F9
:10089000A260E28819492161243CFF2A07D9FF217F
:1008A0004FF0807506E04FF4007060640FE0618DDA
:1008B0004FF0007521851921CDE9001043464A46C5
:1008C0005146204601F0D6FB20B184F8406001205B
:1008D000BDE8FC8700962B4694F828205146204618
:1008E00001F000FD0121204684F8406000F0E2FFA5
:1008F0000020EDE70220EBE70000FFFFE91E000803
:1009000010B586B0044614216846FFF7CBFC1A499F
:10091000206888422DD11948016841F080010160AA
:1009200000681221012200F080000590302003238E
:1009300004248DE81F0012486946FFF729FD0F487F
:100940001030016841F48001016000680022114606
:1009500000F480000590212000F070F8212000F0C4
:100960005FF800222220114600F068F8222000F0F3
:1009700057F806B010BD0000005800403038024063
:10098000001C024070477047024881680278114499
:100990008160704780000020032010B500F06EF8E1
:1009A000002000F005F800F023F8002010BD000042
:1009B00070B50D4D04464FF47A700C4A29781268D0
:1009C000B0FBF1F0B2FBF0F000F0F4FD48B9102CF0
:1009D00007D200222146501E00F030F800206C6043
:1009E00070BD012070BD0000800000208C00002040
:1009F0000A4808B5016841F080510160006800F0C4
:100A0000805000900548001D016841F4804101605C
:100A1000006800F48040009008BD000040380240AB
:100A2000002809DB410900F01F028900012001F1C3
:100A3000E0219040C1F80001704700000E4BF0B477
:100A40001B680D46C3F30223C3F10706042E00D929
:100A50000426191D072901D2002300E0DB1E012412
:100A600004FA06F19C40491E2940641E9940144036
:100A70002143F0BC02F017BC0CED00E0064900F089
:100A8000070210B54FF6FF040868044B204040EA07
:100A900002201843086010BD0CED00E00000FA05CC
:100AA0001848F8B5016841F0805101600068164CA3
:100AB00000F080500090206840F480302060FFF704
:100AC0005FFD4FF47A76054605E000BFFFF758FD5D
:100AD000401BB0420FD86068C003F7D5206840F4CF
:100AE00000302060FFF74CFD054606E0FFF748FDAB
:100AF000401BB04201D90320F8BD60688003F5D5E2
:100B00000020F8BD40380240007000402DE9F84F49
:100B100004460078DFF824944FF000063746C007FB
:100B20000ED0D9F8001021F40001C9F80010D9F84E
:100B30000010626B1143C9F80010606B00B9012608
:100B4000FE4D2068843500030ED5E16B286820F443
:100B5000401008432860E06BB0F5801F01D010B151
:100B600002E0012600E0012720684FF4800BC0025C
:100B70000CD5216C286820F4400008432860206CC4
:100B8000584501D1012601E000B901272068C101C3
:100B900000D50126800666D5E8483830016841F066
:100BA000805101600068DFF898A300F08050009049
:100BB000DAF8001041F48071CAF80010FFF7E0FC89
:100BC000804605E0FFF7DCFCA0EB080064287DD838
:100BD000DAF80000C005F5D5DFF8608308F1680891
:100BE000D8F8000010F440702AD0218E01F4407132
:100BF000814225D0D8F80010D8F8002021F44071A7
:100C000042F48032C8F80020D8F8002022F4803264
:100C1000C8F80020C8F80010D8F80000C0070FD0AE
:100C2000FFF7AEFC824607E0FFF7AAFCA0EB0A0143
:100C300041F288308142CAD8D8F800008007F3D545
:100C4000206BC0F3012103297ED0D9F8001021F4D4
:100C5000F811C9F80010228ED8F80010C2F30B0268
:100C60001143C8F800102078C00607D5286820F086
:100C7000807028602868A16B084328602188AF48ED
:100C80008830490405D5626E016821F44031114372
:100C900001602188090405D5A26E016821F4402174
:100CA000114301602168C90305D5E26E016821F492
:100CB0004011114301602168890305D5226F016845
:100CC00021F4400111430160217800E034E149063C
:100CD00005D5626C016821F00301114301602178A0
:100CE000090605D5A26C016821F00C0111430160D1
:100CF0002188C90505D5E26C016821F03001114356
:100D000001602188890505D5226D016821F0C001A7
:100D1000114301602188490505D5626D016821F400
:100D20004071114301602188090505D5A26D016854
:100D300021F44061114301602188C90407D5E26DA7
:100D4000016821F4405100E05FE011430160218817
:100D5000890405D5226E016821F4404111430160E8
:100D60002168490205D5A26F016821F08061114315
:100D7000016021684FF0006A890209D5E26F0168BD
:100D800021F0006111430160E16F514500D101275D
:100D900021680A0700D50127490305D5626F01685C
:100DA00021F04071114301602168090206D5D4F891
:100DB0008020016821F080511143016021684901C0
:100DC00006D5D4F88420016821F000511143016058
:100DD0002068000106D5D4F88810286820F000703B
:100DE000084328602068C00006D5D4F88C10286815
:100DF00020F0806008432860DFF84891012E0ED073
:100E00002068B0F1007F0AD08FE04F4AD9F8003057
:100E1000104023F4F8120243C9F800201BE7D9F868
:100E200000004E4620F08060C9F80000FFF7A8FBE4
:100E3000804605E0FFF7A4FBA0EB080064287BD800
:100E400030680001F6D421783C487C30C90712D0C4
:100E5000616B81B9237A62680168D0F800C09201A1
:100E6000C1F3014142EA0142CCF3036142EA01616C
:100E700041EA0371016021680A0303D5E26BB2F510
:100E8000801F04D0C9021AD5216C594517D1636857
:100E9000016894F80CC002689B01C1F3014143EA68
:100EA0000141C2F3027241EA0C6141EA0271016040
:100EB0002968626A21F01F01521E114329602168CE
:100EC000C90110D5238A62680168D0F800C0920178
:100ED000C1F3036142EA034242EA0162CCF30271C8
:100EE00042EA01710160216889010CD56168228A9A
:100EF000237B94F808C0890141EA024141EA036179
:100F000041EA0C7101603168B04641F080613160A6
:100F1000FFF736FB064604E0FFF732FB801B642830
:100F20000AD8D8F800000001F6D5E7B3D9F80000D8
:100F30004E4620F0805009E07BE000000838024077
:100F40000070004000380240FFFCFF0FC9F80000AD
:100F5000FFF716FB074604E0FFF712FBC01B6428EF
:100F600067D83068C0438000F6D5216835480A0349
:100F700001D5E26B1AB1C9021DD5216CD9B96369DB
:100F80000168277E02689B01C1F3014143EA0143E6
:100F9000C2F3027143EA076242EA01710160296803
:100FA0006FF0FF0300E04BE0A26A21F4F85103EB7D
:100FB0000222114329602168890212D5E16F51454F
:100FC0000FD1238C6269016807689201C1F3036144
:100FD00042EA034242EA0162C7F3027142EA017146
:100FE00001602178090716D561690268D0F800C050
:100FF0008B01277FC2F30362CCF3014143EA014135
:1010000041EA026141EA077101602868E16A20F45F
:10101000403008432860306840F080503060FFF76F
:10102000AFFA044608E000BFFFF7AAFA001B6428E5
:1010300002D90320BDE8F88F3068C0438000F3D4A4
:101040000020F7E7883802402DE9F04705000F46F9
:1010500063D0444E306800F00F00B84209D23068C7
:1010600020F00F0038433060306800F00F00B842C5
:1010700053D128683C4C810712D5400703D520681E
:1010800040F4E05020602878000703D5206840F441
:1010900060402060A968206820F0F00008432060CC
:1010A0002878C0072AD0304968680839012810D04C
:1010B0000968022810D0890700292EDA216821F05A
:1010C000030101432160FFF75BFA804641F2883952
:1010D0000DE009688903EFE78901EDE7FFF750FAB2
:1010E000A0EB0801494502D90320BDE8F0876868F4
:1010F000216801F00C01B1EB800FEFD1306800F0F6
:101100000F00B8420BD9306820F00F003843306030
:10111000306800F00F00B84201D00120E5E72878E0
:10112000400705D5E968206820F4E05008432060B6
:101130002878000706D52869216821F4604141EA32
:10114000C000206000F038F82168084AC1F303119C
:10115000515CC8400649086006480068FFF728FC53
:101160000020C2E7003C024008380240D23B0008A1
:101170008C000020840000200449054809680068AC
:10118000044AC1F38221515CC840704708380240CC
:101190008C000020E23B000804490548096800680B
:1011A000044AC1F34231515CC840704708380240DC
:1011B0008C000020E23B0008154910B5154809686D
:1011C00011F00C0213D01449042A0FD0082A0ED1B2
:1011D0000F4C241F2268236802F03F025B0207D5F0
:1011E0002068C0F38810A0FB010106E0084610BD8E
:1011F0002168C1F38811A1FB00010023FFF71AF851
:101200002168C1F30141491C4900B0FBF1F010BD58
:10121000083802400024F40040787D012DE9F84FA1
:1012200004004FF000076ED02078DFF87CA3AAF10D
:101230000408C007A8F104054CD0DAF800105046A5
:10124000C1F38101012908D00068C0F381000228A0
:101250000AD1D8F80000400206D52868800339D5A5
:1012600060680028DFD035E06068B0F5803F0BD0C3
:1012700010B1B0F5A02F11D0286820F4803028607C
:10128000286820F4802002E0286840F4803028603C
:10129000606890B1FFF774F906460AE0286840F4E8
:1012A00080202860F0E700BFFFF76AF9801B642800
:1012B00072D828688003F7D50CE0FFF761F906467D
:1012C00005E000BFFFF75CF9801B6428F0D82868B0
:1012D0008003F7D42078800742D5DAF80010504612
:1012E00011F00C0F08D00068C0F3810002280BD168
:1012F000D8F80000400207D42868800718D5E068B5
:10130000012800D114E04AE1E0680028286817D0DD
:1013100040F001002860FFF733F9064605E000BF02
:10132000FFF72EF9801B0228C2D828688007F7D55E
:101330002069296821F0F80141EAC00028600FE027
:1013400020F001002860FFF71BF9064605E000BF0A
:10135000FFF716F9801B02281ED828688007F7D4EB
:101360002078000729D5904861696C3000298146B2
:10137000016812D041F001010160FFF701F9064652
:1013800005E000BFFFF7FCF8801B022804D8D9F85D
:1013900000008007F6D510E089E021F0010101602E
:1013A000FFF7EEF8064604E0FFF7EAF8801B022894
:1013B0007DD8D9F800008007F6D4207840076BD597
:1013C000DFF8E49109F13809D9F80000C0000BD426
:1013D000D9F8001041F08051C9F80010D9F8000088
:1013E000012700F08050009070480168C90512D4B0
:1013F0000168834641F480710160FFF7C1F8064639
:1014000005E000BFFFF7BCF8801B64284FD8DBF86D
:101410000000C005F6D5644EA068683601280AD0E1
:1014200008B1052811D0306820F001003060306824
:1014300020F0040002E0306840F001003060A06855
:10144000A0B1FFF79DF883460CE0306840F004003F
:101450003060F0E7FFF794F8A0EB0B0141F2883021
:10146000814268D830688007F4D50EE0FFF788F82D
:10147000834607E0FFF784F8A0EB0B0141F28830C8
:10148000814258D830688007F4D42FB1D9F80010C1
:1014900021F08051C9F80010A069E0B3DAF800101B
:1014A000C1F3810102294DD00228286800E042E002
:1014B00020F08070286003D0FFF762F804463DE01A
:1014C000FFF75EF8064604E0FFF75AF8801B022893
:1014D00031D828688001F7D4D4E90921DFF8D0C0D9
:1014E000D4E9070694F830304F0894F82C103043B4
:1014F0000CEB074444EA8212104340EA016040EAE0
:101500000370C8F80000286840F080702860FFF77A
:1015100037F8044605E044E0FFF732F8001B0228E4
:1015200009D828688001F7D53BE000BFFFF728F80D
:10153000001B022802D90320BDE8F88F286880012B
:10154000F4D42EE00128D8F8000028D0E16900F496
:1015500080028A4223D1216A00F03F028A421ED1D2
:10156000626A47F6C0710140B1EB821F17D1A16AD0
:101570004FF0FF3200F4403302EB5101B3EB014F67
:101580000DD194F82C1000F07062B2EB016F06D10F
:1015900094F8301000F0E040B0EB017F01D0012062
:1015A000CAE70020C8E70000083802400070004089
:1015B0000000FFFF401EB0F1807F10B501D3012075
:1015C00010BD4FF0E02460610F21601701F06BFE49
:1015D0000020A0610721216110BD70477047000005
:1015E0002DE9F04102680446002540F60F06D06957
:1015F00011689368304205D186067BD58E0679D571
:10160000216E87E003F0010601F49077374371D033
:10161000C70707D0CF0505D501271762E26F42F053
:101620000102E267820708D5DA0706D0276802229E
:101630003A62E26F42F00402E267420708D5DA0735
:1016400006D0236804221A62E26F42F00202E267C7
:1016500002070AD501F02002324306D0236808228F
:101660001A62E26F42F00802E267020509D54A01F8
:1016700007D523684FF400621A62E26F42F020023D
:10168000E267E26F002A2ED0800605D5880603D5D2
:10169000216E09B1204688472168E06F89684906B4
:1016A00002D410F0280F20D0204600F0B5FF2068AB
:1016B0008168490614D5816821F040018160E06E9F
:1016C00070B11D490165E06EFEF73DFE00280AD0AD
:1016D000E06E016D00E02046BDE8F041084709E0FA
:1016E0002046FFF77BFFBDE8F0812046FFF776FF3D
:1016F000E567F8E7C60208D55B0206D54FF480100F
:1017000010622046FFF769FFEDE7030605D50B06DB
:1017100003D5616E0029DED1E5E74006E3D5480632
:10172000E1D513682021204623F040031360616750
:10173000656600F071F8D6E70526000810B50400CC
:1017400002D0606F10B107E0012010BD002084F8C6
:101750007000204600F026F82420606720680168A9
:1017600021F001010160204600F066FF0128ECD065
:10177000606A10B1204600F0B5FE2068416821F48F
:10178000904141602068816821F02A0181602068D1
:10179000016841F0010101602046BDE8104000F001
:1017A00005BF000010B586B0044614216846FEF758
:1017B00079FD16492068884226D11548016841F014
:1017C00010010160006800F0100005901048143806
:1017D000016841F00101016000680221002200F06F
:1017E00001000590032307244FF4C0608DE81F001B
:1017F00008486946FEF7CCFD002201212520FFF7AD
:101800001DF92520FFF70CF906B010BD00100140AE
:1018100044380240000002407047FEE70148FEF7EE
:101820000DBF0000D00000200148FEF73BBF0000C4
:10183000D000002010B5806B0021826B1165C26B57
:10184000116590F84110602902D0FEF733FF10BDFA
:10185000202180F84110FEF7EFFE10BDCA074FF0BF
:1018600028034FF0000210B506D090F84140422204
:1018700033EA040400D0F2228C0707D590F84140E7
:1018800042F04402A34301D042F0B0024B0701D51D
:1018900042F0B80211238B4301D142F0900212238F
:1018A0008B4301D142F060020068016891430160FE
:1018B00010BD000030B5144D1223446B00228B4341
:1018C000AC4202D0114DAC420BD14C0700D5B8222E
:1018D00011248C4301D142F0900283B942F060029E
:1018E0000DE04C0700D5B822CC0701D042F0F2023F
:1018F000890701D542F0F4020BB942F020020068DA
:1019000001681143016030BDD91D0008D9200008CD
:1019100001688A69D243920701D400228A62006872
:101920008169C943C90703D0816941F0010181611F
:1019300070472DE9F041044690F841002821002528
:1019400008238143206804D0C36184F84050BDE877
:10195000F081876986694FF0FE0E8168C268C7F31F
:101960000047D4F80CC00EEA164602F0FE02BCF1A5
:10197000020FC1F3090118D14FF0060C06F006065C
:101980000CEAD11C66450FD1A66C0A46761CA664EB
:10199000A16C0229DBD1A564C36184F840503946AB
:1019A0002046FEF74AFED2E7164620460421FFF7FE
:1019B00055FF324684F84050F1E7000070B5344AD4
:1019C0000025044690F84100202684F84250E26247
:1019D0006585626C282842EA0102626425D02928C4
:1019E00023D02A2821D007212046FFF737FF94F87B
:1019F0004100602801D084F8416025636563206858
:101A000024490268520402681AD522F48042026016
:101A1000A06B002833D0016584F84050A06BFEF71E
:101A200092FC00282BD0A06B1CE003212046FFF77E
:101A300015FF19492820616384F841002563DEE71A
:101A4000120413D5026822F400420260E06B002801
:101A500015D0016584F84050E06BFEF774FC002857
:101A60000DD0E06B016DBDE87040084794F841006F
:101A7000602805D0204684F84050FEF71BFE70BD5C
:101A800084F84160204684F84050FEF7D5FD70BDD3
:101A90000000FFFF35180008C521000870B5044696
:101AA000164AC843002541074FF02000E262256333
:101AB00084F8410084F84250656311D42068616A5B
:101AC000406A0870606A401C6062208D40B1618D80
:101AD000401E2085491E6185606C40F004006064F2
:101AE00007212046FFF7BAFE21681020C861204672
:101AF00084F84050FEF73EFE70BD00000000FFFF7E
:101B00002DE9F0410446006820260025C943C6613E
:101B10002068CB06274A284F416801EA020141604C
:101B20002563E762656306D421681020C861606C94
:101B300040F0040060642046FFF7EAFE03212046DF
:101B4000FFF78CFE606C94F84110602900D028B13A
:101B5000616C2046BDE8F041FFF730BF94F84100CA
:101B6000212812D094F8410022280CD184F8416039
:101B700094F8420084F842504028204684F84050AF
:101B800014D0FEF7F8FDBDE8F08184F8416094F8C8
:101B9000420084F842504028204684F8405002D049
:101BA000FEF7EAFDEFE7FEF7E9FDECE7FEF7E5FDFE
:101BB000E9E7000000E800FE0000FFFF70B5044602
:101BC0000025202084F8425094F8411021290ED09D
:101BD000122184F841002163022120466563FFF74A
:101BE0003DFE204684F84050FEF7C5FD70BD112132
:101BF00084F841002163012120466563FFF72EFE32
:101C0000204684F84050FEF7B7FD70BD2DE9F04145
:101C10000446006820270E460568C7610721204654
:101C2000FFF71CFE20683349426842F400424260DC
:101C3000206842680A4042602046FFF769FEE84398
:101C4000410401D4A06B02E0000404D4E06B10B1A5
:101C5000006840686085F04340070FD4206826F094
:101C60000406616A406A0870606A401C6062208DE8
:101C700020B1618D401E2085491E6185608D18B19F
:101C8000606C40F0040060640025256384F84250D5
:101C9000606C656368B1616C2046FFF78FFE94F855
:101CA0004100282814D131462046BDE8F041FFF715
:101CB000F5BEE06A104EB0420CD0204600F01EF88F
:101CC000E66284F84170204684F84050FEF752FDE9
:101CD000BDE8F08194F8410084F841702228204644
:101CE00084F8405002D0FEF74EFEF1E7FEF74AFEC0
:101CF000EEE7000000E800FE0000FFFF70B50446BC
:101D00000025282084F8425094F84110292911D048
:101D100094F841102A290CD1222184F84100216332
:101D200002212046FFF79AFD204684F84050FEF736
:101D300029FE70BD212184F8410021630121204644
:101D4000FFF78CFD204684F84050FEF71CFE70BD66
:101D50002DE9F0410446006890460E468069C04374
:101D6000C00635D40025202720688069C04380063E
:101D700016D5701CF8D0FEF703FCA0EB0800B042AB
:101D800001D8002EF0D1606C84F8405040F0200063
:101D9000606484F8417084F842500120BDE8F0810D
:101DA00021681020C8612068C7612046FFF7B0FD98
:101DB0002068084942680A404260606C40F00400B4
:101DC000606484F8417084F8425084F84050E4E73D
:101DD0000020E3E700E800FEF8B5044690F8400074
:101DE00001281AD0CB43012584F84050DE064FF07D
:101DF00000056FEA020012D4C20610D42168102038
:101E0000C861606C40F00400606412212046FFF756
:101E100051FD2046FFF77CFD60E00220F8BD314A0D
:101E20001E0639D4460637D42068016821F04001E7
:101E30000160608D002820682AD04168608DFF28ED
:101E4000C1F3090104D9FF2020854FF0807308E019
:101E5000608DE36A2085934201D0E36A01E04FF090
:101E60000073009594F82820204600F03BFA608D1E
:101E7000218D401A608594F841002228206801686D
:101E800003D041F48041016028E041F40041FAE7C9
:101E90004068800117D505E05E0618D4460616D4C2
:101EA000608D20B140212046FFF788FD16E02068B4
:101EB0004168890112D4E16A914204D1416841F438
:101EC000804141600AE02046FFF778FE06E09A066E
:101ED00004D4800602D42046FFF712FE002084F8C6
:101EE0004050F8BD0000FFFFF8B5044690F84000F0
:101EF0000E46012816D0F0434FF00007012184F868
:101F00004010C3066FEA02050ED4E9060CD421681E
:101F10001020C861606C40F0040060642046FFF748
:101F2000F7FC55E00220F8BD410708D4690706D444
:101F3000206826F00406616A406A087007E081079D
:101F40000FD4A9070DD4606A216800788862606A9E
:101F5000401C6062208D401E2085608D401E608583
:101F600036E02A4A010629D4690627D4608D08B1D3
:101F7000208D20B120684068800142D524E020688F
:101F80004168608DFF28C1F3090105D9FF22228530
:101F90004FF0807300970DE0608DE36A2085009715
:101FA000934294F8280002D0E36AC2B202E04FF0F4
:101FB0000073C2B2204600F095F909E0400607D44C
:101FC000680605D4608D80B140212046FFF7F6FCFD
:101FD000F043800605D4A80603D431462046FFF717
:101FE0008FFD002084F84070F8BD206841688901A9
:101FF000EED4E16A914204D1416841F480414160EC
:10200000E6E72046FFF7DAFDE2E700000000FFFF09
:102010002DE9F843174604461548DAB2DDE9089879
:102020001E4600900023204600F05CF942464946D7
:10203000204600F09AF9B8B9012EFDB208D0206808
:10204000390A816242464946204600F08EF958B965
:1020500020688562002240214B462046CDF8008052
:1020600000F056F9002800D00120BDE8F8830000F8
:10207000002000802DE9F8430446164817461E4606
:10208000DAB20090C3022046DDE9089800F02AF990
:1020900042464946204600F068F9B8B9012EFDB223
:1020A00008D02068390A816242464946204600F03D
:1020B0005CF958B920688562002280214B46204691
:1020C000CDF8008000F024F9002800D00120BDE800
:1020D000F8830000002000802DE9F047894690F841
:1020E0004010C66A044601294FF0000820D06FEA6C
:1020F0000907012084F84000B9066FEA020505D4FB
:10210000A80603D449462046FFF780FDF8064DD4C3
:10211000E8064BD469044FF0100001D5290442D4DD
:10212000E16B51B12A0408D40968496819B104E087
:102130000220BDE8F0874FF00108A16B21B16A04CD
:1021400002D40968496811B1B8F1000F1CD094F8A5
:102150004110282902D1B6F1007F04D094F8411033
:10216000292905D01FE049462046FFF797FC25E0C6
:1021700016F5803F17D02168C8612046FFF7C8FBDD
:102180002046FFF7BBFD19E02168C861606C40F094
:102190000400606416B1B6F1807F0FD1616C2046F7
:1021A000FFF70CFC0AE02168C86107E0380705D496
:1021B000280703D449462046FFF7BBFB002084F8DC
:1021C0004000B6E72DE9F041044690F8400088460B
:1021D000E56A012826D06FEA0807012084F840004C
:1021E000B9066FEA020605D4B00603D4414620467C
:1021F000FFF70CFD3A49F8064FF0807231D4F00633
:102200002FD4638D102083B12168C861606C40F0C9
:10221000040060640DB195425ED1616C2046FFF709
:10222000CDFB59E00220BDE8F08194F84120282A36
:1022300002D1B5F1007F04D094F84120292A05D0BD
:102240000CE041462046FFF729FC45E08D4205D0D1
:102250002168C8612046FFF75BFB3AE02168C8614E
:102260003AE0780715D4700713D4608D60B1206808
:10227000626A406A1070606A401C6062208D401E75
:102280002085608D401E6085608D28BB8D4220D1E9
:1022900022E0380706D4300704D441462046FFF731
:1022A00048FB19E0B80717D4B00715D4608D68B1A2
:1022B000606A216800788862606A401C6062608D94
:1022C000401E6085208D401E208505E0954200D08F
:1022D00015B92046FFF712FD002084F84000A2E760
:1022E0000000FFFF70B50068C1F30901074E41EA25
:1022F0000241049C4FF480654268194305EA545535
:102300003543AA4321430A43426070BDFF63FF0384
:102310002DE9F0411D4617460E460446DDF81880AB
:1023200008E0681C06D0FEF72BF9A0EB0800A842D5
:102330000BD855B12068806936EA000013D0002020
:10234000B842EED00020BDE8F081626C002084F835
:102350004000202142F02002626484F8411084F899
:1023600042000120EFE70120EAE770B516460D466E
:1023700004460FE0324629462046FFF7E9FC08B143
:10238000012070BD681C05D0FEF7FAF8801BA8423A
:1023900007D835B120688069C0438007EAD400209F
:1023A00070BD626C002084F84000202142F02002C1
:1023B000626484F8411084F84200E1E710B586B009
:1023C00014216846FDF76EFF1548016841F0800151
:1023D0000160016801F080010591016841F002018E
:1023E0000160016801F002010591016841F00101FD
:1023F0000160006801220B4C032100F001000590F0
:102400002046FEF7B7F8012102220320CDE90001A2
:10241000CDE9021269462046FDF7BAFF06B010BDAD
:1024200030380240000402401348002110B5114C1E
:102430000123124A0460C0E90121C0E9033141616E
:102440008161C1610162FEF739F908B1FDF77AFFD8
:1024500009480021FEF79AF808B1FDF773FF064816
:102460000021FEF7BFF8002803D0BDE81040FDF7BB
:1024700069BF10BD00580040D000002068474020D0
:102480000D48002110B50B4C0C224FF4E1330460D1
:10249000C0E90131C160C0E904128161C16101621A
:1024A0004162FFF74BF9002803D0BDE81040FDF76B
:1024B00049BF10BD001001401C010020FEE770471D
:1024C00070477047FEF760BA05484FF00061036837
:1024D000034A43F470030360803A116070470000C0
:1024E00088ED00E090F82410C90706D00168836ADF
:1024F0004A6822F400321A434A6090F8241089078F
:1025000006D50168C36A4A6822F480321A434A60D9
:1025100090F82410490706D50168036B4A6822F435
:1025200080221A434A6090F82410090706D50168F2
:10253000436B4A6822F400421A434A6090F8241020
:10254000C90606D50168836B8A6822F480521A4353
:102550008A6090F82410890606D50168C36B8A68E2
:1025600022F400521A438A6090F82410490611D5CB
:102570000168036C4A6822F480121A434A60016CB5
:10258000B1F5801F06D10168436C4A6822F4C0028D
:102590001A434A6090F82410090606D50168826C37
:1025A000486820F40020104348607047F8B50026C2
:1025B0000446C667FDF7E4FF054620686FF07E47D6
:1025C0000068000708D500222B464FF40011204672
:1025D000009700F05FF960B92068006840070AD5ED
:1025E00000222B464FF480012046009700F052F95C
:1025F00008B10320F8BD2020606784F87060A067F0
:102600000020F8BD10B5806B0021A0F85A10A0F88A
:102610005210FEF7E3FF10BD10B501682022002321
:102620000C6824F490740C6001688C6824F0010438
:102630008C608267036610BD2DE9F0410446806816
:10264000DFF820C2884F2368D4E90452E1692843A7
:102650001E6800250A438549104306EA0C06064316
:102660001E604FF400422068E668436823F440533C
:10267000334343602368A669206AD3F808C0304317
:102680002CF4306606439E602068B8420AD1086880
:1026900010F0030052D001287BD002287AD0032802
:1026A0006ED186E0724B98420AD1086810F00C0097
:1026B00079D004287BD0082877D00C2860D178E026
:1026C0006C4B98420AD1086810F030006BD010288B
:1026D0006DD0202869D0302852D16AE0664B9842EC
:1026E0000AD1086810F0C0005DD040285FD0802873
:1026F0005BD0C02844D15CE0604B98420DD10868A3
:1027000010F440704FD0B0F5807F50D0B0F5007F0E
:102710004BD0B0F5407F33D14BE0594B98420FD1AD
:10272000086810F4406009D0B0F5806F3FD0B0F574
:10273000006F3AD0B0F5406F22D13AE0012120E09D
:10274000504B98420DD1086810F440502BD0B0F592
:10275000805F2CD0B0F5005F27D0B0F5405F0FD17F
:1027600027E0494B98420BD1086810F440401AD03A
:10277000B0F5804F1BD0904217D0B0F5404F18D025
:102780001021E0694FF6EF7690423AD1092961D2E3
:1027900002E00CE009E006E0DFE801F00D10255C46
:1027A000285C5C5C2B000021EBE70221E9E70421B7
:1027B000E7E70821E5E7FEF7DFFC01E0FEF7ECFCC8
:1027C0006168400000EB5100B0FBF1F080B2A0F175
:1027D0001001B1423ED84FF6F0732168C0F34202B7
:1027E0001840104326E02949606805E0FEF7E4FC44
:1027F000E6E760684FF4803101EB5001B1FBF0F087
:10280000E4E7092926D2DFE801F0050817251C2591
:1028100025251F00FEF7B0FC01E0FEF7BDFC616856
:1028200000EB5100B0FBF1F080B2A0F11001B14219
:1028300010D82168C8600EE06068154901EB5001AE
:1028400005E0FEF7B9FCEAE7606802EB5001B1FB76
:10285000F0F0E9E701250020206660662846BDE823
:10286000F0810000F369FFEF001001409038024052
:102870000044004000480040004C00400050004030
:102880000014014000780040007C00400048E8014E
:102890000024F4002DE9F0479A4617460E460446F8
:1028A000089D4FF000094FF0200839E0681C37D030
:1028B000FDF766FEA0EB0A00A84222D80DB32068FF
:1028C000016849072CD5C069C043000528D4236896
:1028D0004FF40061196221680B6823F4D0730B6018
:1028E00021688B6823F001038B60C4F87480C4F8FE
:1028F0007880C4F87C8000BF032084F87090BDE825
:10290000F08721680B6823F4D0730B6021688B6813
:1029100023F001038B60C4F87480C4F87880EBE77F
:102920002068C06936EA000004D00020B842BDD05B
:102930000020E4E70120F9E70148FEF751BE00005E
:102940001C010020FEE7000030B5B7B0342124A8F8
:10295000FDF7A8FC142131A8FDF7A4FC90216846DE
:10296000FDF7A0FC1E48016841F08051016000683D
:1029700000F0805036901B48016841F440410160EE
:1029800000680224192300F44040369001202C9363
:102990004FF4D87582050104CDE92A42CDE92D54C2
:1029A0002F94CDE9240124A8FEF738FCFEF778F82F
:1029B000E2024FF4A0510025CDE9341231AA0F20D4
:1029C000072182E8310031A8FEF73EFB48F24000C3
:1029D00011951A9500906846FEF798F837B030BD0B
:1029E00040380240007000409FED041B20EE010BB8
:1029F000BCEEC00B10EE100AFDF7B8BC00000000E2
:102A000000408F4030B500230C460A2205462DEDCC
:102A1000028B182183B000F01DFC9FED2F8BB0EED0
:102A2000480BFFF7E1FF0F2328460A22182100F088
:102A300011FCB0EE480BFFF7D7FF01A8009003236D
:102A400028461022182100F0E9FB9DF8041000230D
:102A5000B7EE001A803900EE101ADFED211A0A22B3
:102A6000F8EEC00AB0EE410A00EEA10A84ED000AB9
:102A70009DF80510803900EE101A1821F8EEC00AF2
:102A8000B0EE410A00EEA10A84ED010A9DF80600AD
:102A9000803800EE100A2846B8EEC00A00EE211A6F
:102AA00084ED021A00F0D6FBB0EE480BFFF79CFF56
:102AB0000C480A22C178807841EA0010C3B2284647
:102AC000182100F0C7FBB0EE480BFFF78DFF03B0F5
:102AD000BDEC028B30BD00007B14AE47E17A843F31
:102AE0000000803B0000002070B5002304466B22EC
:102AF000D02100F0AFFB9FED290BFFF775FF0123FD
:102B000020466B22D02100F0A5FB032320461A2289
:102B1000D02100F09FFB042320461922D02100F091
:102B200099FB1B222046D02100F066FB1D4D20F0B2
:102B30001A001B22697840EAC100C3B22046D021A6
:102B400000F088FB1C222046D02100F055FB29789C
:102B500020F018001C2240EAC100C3B22046D02158
:102B600000F078FB1D222046D02100F045FB20F02C
:102B70000F0040F0030320461D22D02100F06AFB25
:102B8000222320463722D02100F064FB2046BDE8F6
:102B9000704001233822D02100F05CBB9A999999AA
:102BA0009999B93F000000202DE9F74F8AB0002421
:102BB000A146A2460A9880236B22C846D021A3468C
:102BC000089400F047FB9FEDCE0BFFF70DFF0A982E
:102BD00001236B22D02100F03DFB0A9800236C22D8
:102BE000D02100F037FB9FEDC80BFFF7FDFE0A98E0
:102BF00000233822D02100F02DFB0A980023232245
:102C0000D02100F027FB0A9800236B22D02100F08E
:102C100021FB0A9800232422D02100F01BFB0A98F4
:102C200000236A22D02100F015FB0A980C236A22A7
:102C3000D02100F00FFB9FEDB60BFFF7D5FE0A98F1
:102C400001231A22D02100F005FB0A980023192243
:102C5000D02100F0FFFA0A9800231B22D02100F0B7
:102C6000F9FA0A9800231C22D02100F0F3FA8320FD
:102C700009900A9840236A22D0214FF4804500F041
:102C8000E9FA0A9878232322D02100F0E3FA9FED95
:102C9000A20BFFF7A9FE0A9800232322D02100F0FF
:102CA000D9FA05AE00960A9802237222D02100F0CC
:102CB000B5FABDF814000C21002740BAB0FBF1F6BC
:102CC00029E005A800900A980C237422D02100F076
:102CD000A5FABDF814007F1CBDF81820BFB2BDF8DE
:102CE0001C1040BABDF81E3000B28044BDF81A0076
:102CF00049BA09B240BA00B28144BDF816000C448A
:102D000040BA00B2824450BA00B25ABA834408981A
:102D100011B208440890B742D3D3089B9BFBF6F14D
:102D200098FBF6FB9AFBF6F799FBF6F094FBF6F2AC
:102D300093FBF6F3002901DD4C1B00E04C194FF02A
:102D40000009414200EE900A0998CE1701EE102AC0
:102D500000EE100AF8EEE00AF8EEC12AB8EE402ABA
:102D6000B8EE401AB8EE403A01EB967180EE820A56
:102D70008E0A8DF8146089088DF81510514201EE05
:102D8000903ACE17772201EB9671F8EEE11A8E0A8F
:102D90008DF8166089088DF8171059420223C2EE8B
:102DA000810ACE1701EB96718E0A8DF8186089089A
:102DB0008DF819100B9805AED02180ED000A0B9804
:102DC00081EE831AC0ED010A0B9880ED021A00967D
:102DD0000A9800F023FA9DF8140002239DF81510BC
:102DE0007A22000200B20843D021CDE900600A989F
:102DF00000F014FA9DF8140002239DF815107D22AE
:102E00000096000200B2084302900A98D02100F018
:102E100005FA9DF814004E469DF8158001210DF12C
:102E200010090B4602020FFA82FC4CEA080C002043
:102E3000CDE903C601AA00BF52F820600E4201D0BE
:102E400009F80030401C80B20328F5D300EE90BA98
:102E500000EE105A01EE107AB8EEE02AF8EE402AA1
:102E6000F8EEC10A4FEAEB720199B8EE401AB8EEDB
:102E7000403A82EE220A0BEB527001EE904AA1EB2F
:102E8000E0000190F9170298F8EEE11A07EB517192
:102E9000A0EBE1000290E117039804EB5171A0EB65
:102EA000E1000390019880EE812A000A8DF8140059
:102EB0009DF81010019808438DF8150002989DF8B0
:102EC0001110000A8DF81600029808438DF81700BB
:102ED0000398C1EE830A000A8DF818009DF81210BD
:102EE000039808438DF819000C9880ED000A0C989F
:102EF00080ED012A0C98C0ED020A0DB0BDE8F08FFC
:102F00009A9999999999B93F9A9999999999C93F93
:102F1000B81E85EB51B88E3F7B14AE47E17AA43FD3
:102F200011B5B24C2DED0A0B2DED108B95B0F0EED6
:102F300060FAB0EE41AAF0EE44AAB0EE63BAD4ED66
:102F4000009A94ED019A94ED028A29EEA90AD4ED33
:102F5000038A69EE89EA8DED0C0A29EE090A29EE49
:102F600088EA29EEA8FA8DED0B0A9DED250A69EE97
:102F700008BA69EE28DA20EE000A28EE08DA68EED0
:102F800028CA28EEA8CA0FEEAF0A0AEE0A0A00F015
:102F900073F9B5EEC00AF1EE10FA7DD0B7EE001A63
:102FA000C1EE000A9DED250A20EE200A8DED250ACE
:102FB0002FEEA00A8DED260A2AEE200A8DED270AB3
:102FC0009DED2B0A20EE000A0BEE0B0A0AEEAA0A70
:102FD00000F052F9B5EEC00AF1EE10FA5CD0B7EE8F
:102FE000003A3BEECF1AC3EE000A8DED0A1A9DEDB2
:102FF0002B0A7BEE8F2AB0EE00AA3DEE8E2A7CEEE5
:10300000EE1A60EE20BA2BEE20BA6AEEA0AA2BEEE2
:103010008A0A6BEE0AFA2AEE8AFA8DED0F0A60EE42
:10302000220AF6EE002A72EECD2A72EECC4AF6EEB5
:10303000002ACDED104A20EE240A0FEE810A9DED04
:103040000B1A32EEC11A0FEE020A8DED001A31EEA4
:103050004C1A4FEE810A20EE000A4FEE210A00EED4
:10306000A00A00F009F9DDED0C0A9DED0B1AB6EE91
:10307000003A3CEEAE2A70EEC10A9DED001A7EEEDB
:10308000AC5A70EECD0A31EE4D4A70EE8C2ADDED71
:10309000260A60EEA23A00E0A2E020EE0A0A7EEEE6
:1030A0002D1ADDED104A9DED0A1A3DEECE6A60EE56
:1030B000240A20EE011A60EE211A9DED0F0A26EE79
:1030C0000A5A65EE8A4A20EE060A4A48A4F17001BF
:1030D0000FEE820AB2EE042A0FEE040A20EE0A0A6C
:1030E00040EE060A40EE041A00EE251A9DED270A6E
:1030F000DDED255A20EE054A40EE643A9DED250AA5
:1031000005EEE24A60EE244ADDED262A9FED380AFC
:103110006BEE815A42EEC54A6BEE212A2AEEA05A86
:1031200080ED000A80ED010A4AEEC12A80ED020A14
:1031300091ED030A0BEEE15A4BEE605A60EE031A72
:1031400073EEA20A9DED280A34EE051A00EE820AFB
:10315000DDED290A74EEA52A41EE020A9DED2A1A38
:1031600002EE821A29EE402A08EE602A08EEC12AF1
:1031700042EE219A29EE803A29EEA02A69EE812AB0
:1031800008EE013A09EE412A49EE202A08EEE03A1B
:1031900008EE802A48EE402A29EEA90A03EE219A79
:1031A00002EE218A42EEA18A09EE090A08EE080A17
:1031B00008EEA80A00F060F8B7EE001AC1EE000AA7
:1031C00029EEA00A29EE201A68EE201A68EEA00A5D
:1031D00084ED000A84ED011AC4ED021AC4ED030A5D
:1031E00015B0BDEC108B0BB010BD000070000020BE
:1031F00000000000C40000200EB5012302A8CDE9A4
:1032000000030548FDF7BCFA0348FDF754FA2028EF
:10321000FAD19DF808000EBDD000002070B586B030
:103220001C4602AD0A4801230A9ECDE90054FDF771
:10323000A7FA0748FDF73FFA2028FAD1002002E05C
:10324000295C3154401CA042FADB06B070BD00007E
:10325000D00000200FB5012383B006A8CDE90003FC
:103260000448FDF7EFFA0348FDF725FA2028FAD1C4
:1032700007B000BDD000002000F0EEB900F0C0B8EB
:103280004100080218BF04200A0E18BF40F00100D8
:103290004FF07F4232EA010108BF40F002000128EE
:1032A00008BF05207047090700284FEA116104DBB9
:1032B00000F1E02080F80014704700F00F0000F1EA
:1032C000E02080F8141D704710B54FF00E402DED32
:1032D000028BB0EE408A18EE104A00EB4400B0F1C9
:1032E000506F4AD84FF0FC40B0EB440F22D2B0EE02
:1032F000C80ADFED360A30EEC00ADFED350A60EEAF
:10330000208A18EE900A00F045FC01EE100A14F035
:10331000004F1DBFDFED2F0A9FED2F0AB1EE411ABE
:10332000DFED2E0A08BF9FED2E0ADFED2E1A21EEEB
:10333000218A05E0DFED2C0A68EE088AB0EE600A0B
:103340009FED2A1ADFED2A1A30EE080A48EE811A9C
:103350009FED281A08EEA11ADFED271A48EE811A10
:103360009FED261A08EEA11A68EE281ABDEC028B12
:1033700001EE810A30EE200A10BD4FF0E440B0EBC0
:10338000440F0CD918EE100AFFF77AFF042808BF83
:1033900000F08EF9B0EE480ABDEC028B10BD4FF084
:1033A0007F40B0EB440F07D2B0EE480ABDEC028B71
:1033B000BDE8104000F06DB9012000F091F9BDECBE
:1033C000028BBDE8104000F06BB900000000803FA8
:1033D0000000003F0000C9BF22AAFDB90000C93F9C
:1033E00022AAFD39000000C00000000024FE1C3DA0
:1033F000C78AD83C1E67383D1B93993DAFAA2A3E29
:1034000010EE100A10B510EE901A4FF0684202EB61
:1034100040032DED028BB3F1654F3CBF02EB41023F
:10342000B2F1654F7CD200BFC0F3C753C1F3C7529E
:103430009A1A1B2A09DD10F0004F14BF9FED6E0A87
:103440009FED6E0ABDEC028B10BD12F11A0F1BDA54
:1034500011F0004F09D010F0004F0CBF9FED680A2B
:103460009FED680ABDEC028B10BD80EE208A18EE3D
:10347000100AFFF705FF042808BF00F019F9B0EEA5
:10348000480ABDEC028B10BD4200B2EB410F37D9A8
:1034900010F0004F19BFDFED5C1A9FED5C1ADFEDF5
:1034A0005C1A9FED5C1AB0EE602A0A46F1EE400A03
:1034B00080F00041B0EE420A10460A1A5200B2F102
:1034C000807F34D2484010F0004FDFED532A9FED4B
:1034D000533A1DBF9FED522A71EEE21A31EE431AA4
:1034E0009FED502A04BF71EEA21A31EE031AF0EEDE
:1034F000402A42EE602A40EE020A82EEA02A18E03C
:1035000011F0004F04BF9FED481AF0EE411AD4D0DD
:1035100010F0004F1CBFDFED451A9FED451A00E08B
:1035200026E004BFDFED431A9FED431AC5E780EEA6
:10353000202A22EE020ADFED410ADFED412ABDEC2E
:10354000028B40EE202ADFED3F0A40EE220ADFED3B
:103550003E2A40EE202ADFED3D0A40EE220A22EE0E
:10356000000A00EE201A31EE020A30EE210A10BDE8
:103570004FF07F42B2EB400F28BFB2EB410F05D2B4
:10358000BDEC028BBDE8104000F086B840EA0103B4
:103590005B0008BF41F0FF410BD0B2EB400F08BF0A
:1035A000B2EB410F08D120F0804000EE100A21F06C
:1035B000804100EE901A37E7B2EB400F12BF5FEA8E
:1035C000410240F0FF4001F000413FF42DAF4A00BE
:1035D00092EA40033FF528AF002AACBF9FED1C1ACA
:1035E0009FED1C1A20EE010A60EE810A10EE100A0F
:1035F00010EE901A18E70000DB0FC9BFDB0FC93FC0
:10360000DB0F4940DB0F49C00000C9BF22AAFDB94A
:103610000000C93F22AAFD390060ED3EC30ACE3743
:10362000000000BF0000003F00000000000049C093
:1036300022AA7DBA0000494022AA7D3A2DAD65BD7F
:103640008FB8D53D0FB511BE61C84C3EA8AAAABE21
:103650000000804F0000802F10B52DED028BB1EEE1
:10366000C08A18EE100A20F00040C0F1FF40C00FE1
:103670000AD010EE100A20F00040C0F1FF40C00F49
:1036800004BF012000F02CF8B0EE480ABDEC028B1C
:1036900010BD30EE000A704730EE200A704700007F
:1036A000DFED020A80EEA00A704700000000000073
:1036B0009FED020A20EE000A704700000000001093
:1036C00002E008C8121F08C1002AFAD170477047EB
:1036D000002001E001C1121F002AFBD17047000049
:1036E00001490860704700009000002010B5134C9D
:1036F000DFED130A94ED020A20EE200A84ED100A91
:10370000B6EE080AFFF7B8FDD4ED100A9FED0D1ACA
:1037100020EE200A84ED110A94ED020A20EE010A3F
:1037200084ED120AB6EE080AFFF7A6FDD4ED120AE0
:1037300020EE200A84ED130A10BD000000000020D6
:10374000ABAAAA3E610BB63B2DED028B84B0BFF352
:103750004F8FBFF36F8FF94900200860BFF34F8F81
:10376000BFF36F8FF6490A6842F400320A60BFF374
:103770004F8FBFF36F8FF24A70321060BFF34F8FDD
:10378000101F43F6FF750068EC4E1036C0F34E3242
:10379000C0F3C90405EA4213204600BF43EA80771C
:1037A0003760401EFAD2521EF4D2BFF34F8F086822
:1037B00040F480300860BFF34F8FBFF36F8FFDF789
:1037C000EBF8FFF7C1F8FEF7F9FDFEF72DFEFEF767
:1037D00057FEDC487522D021FFF70EFD712800D07E
:1037E000FEE76420FCF7C2FDD64880236B22D0217F
:1037F000FFF730FD9FEDD40BFFF7F6F8D44AD14820
:10380000A2F10C01FFF7D0F9C820FCF7AFFDCD48BD
:10381000FFF76AF9CE49CB482439FFF7F3F8322095
:10382000FCF7A4FDC74C241F207830B1012807D035
:10383000022808D003280DD108E09FEDC60A07E052
:103840009FEDC50A04E09FEDC50A01E09FEDC40AA3
:1038500084ED040A607830B1012807D0022808D02E
:1038600003280DD108E09FEDBF0A07E09FEDBE0AD7
:1038700004E09FEDBE0A01E09FEDBD0A84ED050A5C
:10388000A07810B1012807D102E09FEDBA0A01E04B
:103890009FEDB90A84ED060A9FEDB80AAC481838C6
:1038A000DFEDB70A9FEDB71AA64E643680EC030A27
:1038B0003A22A448D021FFF79FFCC007F8D0A148C6
:1038C00001A9062300913B22D02100F15805FFF702
:1038D000A5FCBDF8040029460623432240BA2880EF
:1038E000BDF8060040BA6880BDF8080040BA00B2D2
:1038F000A88000EE100AB1F900008D1D00EE900ABC
:10390000B8EEC01A94ED040AF8EEE00A21EE001AAF
:1039100060EE800AC4ED070AB1F9020001A900EEC9
:10392000900A8848F8EEE00A20EE800A84ED080A42
:1039300084ED091A0091D021FFF770FCBDF8040056
:103940002946022240BA2880BDF8060040BA6880A5
:10395000BDF8080040BA00B2A88000EE100AB1F924
:1039600000005E3D00EE900AB8EEC01A94ED050A24
:10397000F8EEE00A21EE001A60EE800AC4ED0A0AB1
:10398000B1F90200182100EE900A2846F8EEE00A8C
:1039900020EE800A84ED0B0A84ED0C1AFFF72CFC54
:1039A000C00714D001A8009007232846032218213D
:1039B000FFF734FC9DF80A00000708D4BDF80400A6
:1039C0003080BDF806007080BDF80800B080604807
:1039D00024389FED6D1AB6F9001094ED060A00EE3A
:1039E000901AD0ED001AF8EEE00A60EE800A20EEA0
:1039F000A13A84ED0D3AB6F90210D0ED011A00EEAD
:103A0000901AF8EEE00A60EE800A60EEA13AC4ED8A
:103A10000E3AB6F90410D0ED021A00EE901AF8EE44
:103A2000E00A20EE800A20EE214A84ED0F4A84ED60
:103A3000031A9FED568A94ED020A94ED0C1AD4ED08
:103A40000B0AD4ED0A1A21EE001A60EE800A21EE6C
:103A5000800A04F11C013B48C1EE082A80EE882A46
:103A6000C0EE081A91EC030AFFF75AFA354DF0EE52
:103A7000008A6C3595ED002AD5ED011A95ED020A04
:103A800062EE020A95ED031A61EE802A41EEA10A68
:103A900042EE012A40EE400A22EEA80A41EE410A17
:103AA000FFF7ECFB84ED150A95ED010AD5ED031A3D
:103AB000D5ED000A95ED021A20EE210A00EEC10AAA
:103AC00020EE280AFFF700FCB1EE400A84ED140A4C
:103AD00095ED020A95ED031AD5EC021A61EEA10AE2
:103AE00061EE821A42EE420A40EE011A40EE400AAE
:103AF00021EEA80A41EE010AFFF7C0FBD4ED021A3D
:103B000094ED142AB0EE081AC8EE210A20480221CA
:103B100020EE822A60EE801A84ED142A94ED150AB4
:103B200020EE800A30EE410A84ED150AC4ED161A23
:103B3000FCF71AFD3220FCF719FCB9E650EF00E063
:103B400014ED00E0040000209A9999999999B93FE1
:103B5000B8000020000080380000003900008039E3
:103B60000000003A0000FA3B00007A3C0000FA3CFA
:103B700000007A3DFFEBBF40FFEBBF3F0000EB438F
:103B80000000F0420000FA420AD7A33B0000344391
:103B90000004024010B500EE100A2DED028BB1EECC
:103BA000C08A18EE100A20F00040C0F1FF40C00F9C
:103BB0000AD010EE100A20F00040C0F1FF40C00F04
:103BC00004BF0120FFF78CFD18EE100ABDEC028B3C
:103BD00010BD000000000000000001020304060701
:103BE000080900000000010203040000103C000866
:103BF0000000002094000000C0360008A43C00082B
:103C0000940000200C050000D0360008E1FAFFFF08
:103C10000000010600000000DB0F4940000000002A
:103C20000000000000000000000000000000000094
:103C30000000000000000000000000000000000084
:103C40000000000000000000000000000000000074
:103C50000000000000000000000000000000000064
:103C60000000000000000000000000000000000054
:103C70000000000000000000000000000000000044
:103C80000000803F00000000000000000000000075
:103C90000100000010000000000000000024F400FB
:043CA0000000000020
:04000005080001F9F5
:00000001FF
