:020000040800F2
:100000000006002005010008FB250008E11A000891
:10001000F92500082F0600085D28000800000000F0
:10002000000000000000000000000000FF250008A4
:100030003106000800000000FD2500080126000828
:100040001F0100081F0100081F0100081F01000810
:100050001F0100081F0100081F0100081F01000800
:100060001F0100081F0100081F0100081F010008F0
:100070001F0100081F0100081F0100081F010008E0
:100080001F0100081F0100081F0100081F010008D0
:100090001F0100081F0100081F0100081F010008C0
:1000A0001F0100081F0100081F0100081F010008B0
:1000B0001F0100081F0100081F010008F11A0008B5
:1000C000E51A00081F0100081F0100081F010008B1
:1000D0001F0100081F010008512800081F01000827
:1000E0001F0100081F0100081F010008DFF810D0E1
:1000F00000F07CFA00F03AF800480047DD370008CD
:10010000000600200648804706480047FEE7FEE755
:10011000FEE7FEE7FEE7FEE7FEE7FEE7FEE7FEE7B7
:1001200005260008ED000008202A04DB203A21FA09
:1001300002F00021704721FA02F3D040C2F1200200
:100140009140084319467047D2B201E000F8012BF4
:10015000491EFBD270470022F6E710B513460A4647
:1001600004461946FFF7F0FF204610BD70B5054C58
:10017000054D03E0206820448047241DAC42F9D19E
:1001800070BD0000543C0008583C0008F0B480EA00
:100190000102D40F4200B2EB410F02D202460846E0
:1001A00011464A0042D0C30DDDB2C1F3C752AD1AA9
:1001B000202D35DAC1F3160141F4000204B1524298
:1001C000C5F1200602FA06F12A411044B3EBD05FD4
:1001D00023D0C4B1012DA0EBC35009DCF0BC4FF01B
:1001E000004202EAC352DBB200F5000000F044B95D
:1001F000400000F1807000EBC350A0F1807040EA35
:10020000D170490009E0490841EAC071A0EBC35030
:1002100000F50000400800EBC350F0BC00F023B92B
:100220006142012202EB4101001BF6E7F0BC70477E
:1002300081F00041AAE780F00040A7E780EA0102D0
:1002400010B502F00043400022D04A001FD0010E3A
:1002500001EB1261C0F35600C2F3560240F40000F5
:1002600042F40002A0FB022000047F39140400D0F5
:10027000401C50EA124001D44000491EC2B20C0694
:1002800004EBD010401C4008802A02D003E000207C
:1002900010BD20F00100002900DA0020184310BD35
:1002A00030B480EA010202F0004530F0004221F053
:1002B000004013D090B1C30DD40DC2F31601C0F3AA
:1002C0001600E41A41F4000140F400027D3491422A
:1002D00001D3641C00E04900002C02DA30BC00208D
:1002E00070474FF400000023914201D3891A034361
:1002F00040084FEA4101F7D151B1914202D14FF08C
:10030000004105E002D24FF0010101E06FF0010170
:1003100003EBC450284430BC00F0A5B8420005D01F
:10032000C0F3C7525242914201DC0020704700EBFB
:10033000C15070472DE9FE4F81EA030404F00044E8
:1003400021F0004100944FF0000B23F0004350EAED
:1003500001045ED052EA03045BD0C3F30A54C1F334
:100360000A552C44A4F2F3340194A0FB0254C1F3C7
:10037000130141F48011C3F3130343F4801301FB11
:10038000024400FB034E840A970A44EA815447EA78
:100390008357A4FB076802958D0A05FB07854FEA82
:1003A000932C04FB0C542705029D4FEA065847EA9C
:1003B0001637B5EB08056EEB070C870E920E47EA71
:1003C000811742EA8312A7FB0201B6EB0B0164EB33
:1003D00000042B0D43EA0C335E1844EB1C50DA4644
:1003E0005146E7FB0201C5F313044FEA0B3343EA1E
:1003F00014534FEA0432019C43EA0603A4F10C04AF
:100400000294009CCDE900B400F0A2F803B0BDE86E
:10041000F08F00200146F9E7C10F80EAE070084440
:10042000CA079623002100F027B896230022114620
:1004300000F022B8C1F30A5210B5C1F3130140F223
:10044000FF3341F480119A4201DA002010BD40F2DE
:1004500033439A42A2F2334203DC5242FFF764FE76
:1004600010BD904010BD0029A8BF7047401C490036
:1004700008BF20F00100704710B4B0FA80FC00FA09
:100480000CF050EA010404BF10BC704749B1CCF134
:10049000200421FA04F411FA0CF118BF01212143C0
:1004A0000843A3EB0C01CB1D4FEA00614FEA10207B
:1004B00042BF002010BC704700EBC350104400291D
:1004C000A4BF10BC7047401C490008BF20F00100C9
:1004D00010BC7047F0B4002802DCF0BC002070476C
:1004E000C0F3C751C0F3160040F40000CA0701D1A1
:1004F0004000491E3F2202EB6105002211464FF4E5
:10050000000626FA01F31344D418844201D8001BD4
:100510001A464000491C1729F3DD5100814202D2DE
:100520004FF0FF3100E0002102EBC550F0BCFFF7B7
:100530009ABF10B5141E73F1000408DA401C41F193
:10054000000192185B411A4301D120F0010010BD57
:100550002DE9F04D92469B4611B1B1FA81F202E0CD
:10056000B0FA80F22032904600F052F804460F466E
:1005700040EA0A0041EA0B0153465A46084313D0A9
:10058000114653EA010019D0C8F140025046FFF766
:10059000CBFD05460E4650465946424600F038F817
:1005A000084305D0012004E020463946BDE8F08D1F
:1005B0000020054346EAE0762C4337430A9863055A
:1005C000E40AA0EB08000022FD0A44EA47540A307E
:1005D00002D500200146E9E7010510196941DDE96E
:1005E000084500196941BDE8F04DA2E7064C074DEA
:1005F00006E0E06840F0010394E8070098471034F3
:10060000AC42F6D3FFF776FD343C0008543C0008BA
:10061000202A04DB203A00FA02F1002070479140C2
:10062000C2F1200320FA03F3194390407047FEE71C
:100630007047704710B590F821100024022903D0AC
:100640000421816301243DE001680A6822F00E0262
:100650000A6001680A6822F001020A601A4A016809
:10066000914201D1012121E0174A1432914201D176
:1006700010211BE0144A2832914201D1891515E05E
:10068000114A3C32914201D189140FE00E4A503296
:10069000914202D14FF4803108E00B4A643291421A
:1006A00002D14FF4801101E04FF08071064A083A00
:1006B0005160012180F82110002180F82010416B49
:1006C00001B18847204610BD0800024090F8210083
:1006D0007047000070B5044600F006F90546601C3E
:1006E00002D004480078044400F0FEF8401BA04209
:1006F000FAD370BD880000202DE9F84FDFF8B891DB
:10070000002409F1040A0AF1040B23460F270BF118
:10071000040EC9E00125A5402A40AA427DD1674EBA
:10072000D1F804C0ACEB0608B44532D014DCBCF1FF
:10073000030F3AD009DCBCF1000F2AD0BCF1010F45
:100740001CD0BCF1020F31D11DE0BCF1110F17D04C
:10075000BCF1120F2AD119E0B8F5881F19D006DCB8
:10076000B8F5803F15D0B8F5801F1FD111E0B8F55E
:10077000001F0ED0B8F5041F18D10AE0CB6815E0B1
:10078000CB681B1D12E0CB6808330FE0CB680C333D
:100790000CE08B682BB1012B4FF0080303D04561AF
:1007A00004E0042302E0056100E00023FF2A01D8F1
:1007B000064601E000F104064FEA840501D9A5F1DF
:1007C0002005D6F8008007FA05FC28EA0C0803FA91
:1007D00005F548EA0508C6F800804D68ED0062D5C9
:1007E000374DAE6946F00106AE61AD6924F00306EF
:1007F00005F001050095334D06EB050CDCF80850BB
:10080000A607360F07FA06F825EA0805DFF8B880CC
:10081000404503D14FF0000817E044E0DFF8AC801A
:10082000404502D14FF001080FE0DFF8A4804045B9
:1008300002D14FF0020808E0DFF89880404502D16D
:100840004FF0030801E04FF0040808FA06F848EA00
:100850000508CCF808804D68D9F80060ED034D46D6
:1008600001D5164300E096432E604D68DAF800602B
:10087000AD03554601D5164300E096432E604D6802
:10088000DBF80060ED025D4601D5164300E09643BB
:100890002E604D68DEF80060AD02754601D5164346
:1008A00000E096432E60641C0D682A46E5407FF404
:1008B00031AFBDE8F88F00000004014000001110C6
:1008C000001002400000014000080140000C0140FF
:1008D0000010014000140140C26821EA02030A40EE
:1008E00043EA024101617047014880687047000097
:1008F00088000020704770472DE9F04101680446E8
:100900004A694E6890F83E000025D743FA050BD49B
:10091000F243D20508D46FF4807201254A61216840
:100920000A6842F400420A60B90508D4F143C905D7
:1009300005D422686FF4007145F002055161790514
:1009400025D4F143C90522D4638D94F83D10226B60
:10095000202808D13BB9212910D029290ED02829D7
:1009600001D1212A0AD022686FF48061516145F0DB
:100970000405102806D0402804D008E0204601F0E5
:100980007DFC04E02068016841F4007101603805D5
:1009900008D4F043C00505D421686FF4006045F029
:1009A00008054861002D07D0206C284320642046AC
:1009B000BDE8F04101F000B9BDE8F0812DE9F0415A
:1009C000026800245168C76A90F83E5090F83D6074
:1009D000102D1CD0402D1AD0036C002B7ED05369F3
:1009E0004FF02805DB439F0779D4CF43BF0576D46A
:1009F000016C01B1946990F83D3000219D430B4694
:100A00006ED0C91E516180F83C30BDE8F081946918
:100A100053694FF42A0CDB435FEAC37E4FF02A464A
:100A200004D06745F1D0B742EFD010E0CF43BF0507
:100A30000DD4C16A614501D1012103E0C16AB1420F
:100A400001D10821C162BDE8F04101F081BB1E0760
:100A500016D4CE43B60513D4416CC9B21161416BB3
:100A600011B9826B002AD0D0896A19B9816B896A61
:100A70000029CAD00068416841F400614160C4E7C0
:100A80009E0706D4CE43B60503D4BDE8F04101F07D
:100A9000B3BAE443526864074FEA02521BD4002AF7
:100AA000B3DB1A0608D4CA43520505D45A0705D544
:100AB000BDE8F04101F044BA5A07A6D4C9438905FC
:100AC000A3D4102D03D0BDE8F04101F087BBBDE8F1
:100AD000F04101F0FBB9002A97DB02E015E029E0C4
:100AE00015E05A0608D4CA43520505D45A0705D55D
:100AF000BDE8F04101F076B95A0786D4C9438905AB
:100B000083D4BDE8F04101F003B9946967E7556803
:100B100025F480655560E243540700D50121120693
:100B200001D5828900E0028B80F83C3092B2FFF759
:100B3000E2FE6AE7DC0606D4CC43A40503D4BDE894
:100B4000F04101F0DDBB212E27D0292E25D05C06F7
:100B500055D4CC43640552D45B0752D590F83D1070
:100B6000438D002B8BD01269436A1A70426A521C63
:100B70004262428D521E4285428D002AD9D12A29D5
:100B8000D7D101684A6822F480624A602221016359
:100B900080F83D5000F036FA37E71C0623D4CC43EA
:100BA000640520D45B0720D590F83D10438D002BC1
:100BB000BFD0436A1B781361426A521C4262428D65
:100BC000521E4285428D002AB3D12929B1D1016834
:100BD0004A6822F480624A602121016380F83D5016
:100BE00000F011FA11E75B07A3D4C9438905A0D42B
:100BF000418D00299DD0416A097811610AE05B07A7
:100C000097D4C943890594D4418D002991D01169A5
:100C1000426A1170416A491C4162418D491E4185F9
:100C2000F3E6704790F83D007047000070B504008F
:100C300025D094F83D00002520B984F83C5020468A
:100C400000F098F9242084F83D002068016821F024
:100C5000010101602068016841F4004101602068E1
:100C6000016821F40041016000F0FCFA4D4A61681E
:100C7000914201D84C4900E04C49884201D2012000
:100C800070BD4B492368B0FBF1F15E6826F03F066A
:100C90000E435E606368934206D94FF496735943DE
:100CA0004FF47A73B1FBF3F12368491C1E6A26F0F6
:100CB0003F06314319626168914210D84900401ED5
:100CC000B0FBF1F2521CC2F30B02042A01D2042041
:100CD00022E0B0FBF1F0401CC0F30B001CE0A26866
:100CE000F2B301EBC10303EB0116431EB3FBF6F3B2
:100CF0005B1C43F480431B0549D092B301EBC10256
:100D000002EB0111401EB0FBF1F0401CC0F30B00E0
:100D100040F4804040F400402168CA694CF6FF73FB
:100D20009A431043C861D4E9071001432068026860
:100D300022F0C00211430160D4E90301014320689D
:100D4000826848F2FF339A4311438160D4E9050178
:100D500008432168CA6822F0FF021043C86001E01E
:100D60000EE016E02068016841F001010160256491
:100D7000202084F83D00256384F83E50002070BD9B
:100D800001EB4106431EB3FBF6F35B1CB3E7012006
:100D9000C2E701EB4101401EB0FBF1F0401CC0F383
:100DA0000B00B7E7A086010080841E0000093D000B
:100DB00040420F007047704770477047704700000F
:100DC000F8B50024DDE90676009490F83D50202D1A
:100DD00060D1314D46F2A81C2D68B5FBFCF505EB42
:100DE000C50C0CEB051500956D1E009506D0056829
:100DF000AD69ED43AD070DD4009DF5E740F8304FE8
:100E0000202141738473016941F020010161047361
:100E10000120F8BD90F83C50012D3BD0012580F811
:100E20003C500568D5F800C05FEACC7C05D1D5F808
:100E300000C04CF0010CC5F800C00568D5F800C032
:100E40002CF4006CC5F800C0222580F83D504025E8
:100E500080F83E50046447624685458D05850F4DF8
:100E6000C56241648264C364046501680A6842F42F
:100E700080620A6001680A6842F480720A6080F841
:100E80003C40018D21B10068416841F4E06141605E
:100E90000020F8BD0220F8BD940000200000FFFFF4
:100EA000F8B50024DDE90676009490F83D50202D39
:100EB00059D12E4D46F2A81C2D68B5FBFCF505EB6B
:100EC000C50C0CEB051500956D1E009506D0056848
:100ED000AD69ED43AD070DD4009DF5E740F8304F07
:100EE000202141738473016941F020010161047381
:100EF0000120F8BD90F83C50012D34D0012580F838
:100F00003C500568D5F800C05FEACC7C05D1D5F827
:100F100000C04CF0010CC5F800C00568D5F800C051
:100F20002CF4006CC5F800C0212580F83D50402508
:100F300080F83E50046447624685458D05850C4D1A
:100F4000C56241648264C364046501680A6842F44E
:100F500080720A6080F83C400068416841F4E061BA
:100F600041600020F8BD0220F8BD00009400002080
:100F70000000FFFF10B586B00021009101910291A1
:100F8000039100681B49884232D11B4CA06940F094
:100F90000800A061A069694600F0080004904FF4C1
:100FA0004070009012200190032003901348FFF737
:100FB000A3FB1348416841F0E06141F00201416048
:100FC000E06940F40010E061E069002200F40010E4
:100FD000049011461F2000F07DF81F2000F06CF8EF
:100FE00000221146202000F075F8202000F064F85F
:100FF00006B010BD0054004000100240000C01403B
:10100000000001407047704702488168027811442F
:101010008160704788000020074810B5016841F0E2
:1010200010010160032000F075F8002000F006F8C0
:1010300000F024F8002010BD0020024070B50D4DD6
:1010400004464FF47A712878B1FBF0F00A49096838
:10105000B1FBF0F000F0ECFA48B9102C07D20022F6
:101060002146501E00F036F800206C6070BD012053
:1010700070BD000088000020940000200C4808B5D6
:10108000816941F001018161816901F001010091F3
:10109000C16941F08051C161C06900F08050009089
:1010A0000448416821F0E06141F00071416008BDF1
:1010B0000010024000000140002809DB00F01F0280
:1010C000012191404009800000F1E020C0F80011AA
:1010D00070470000F0B40E4B1B680C46C3F30223AC
:1010E000C3F10705042D00D90425191D072901D2D4
:1010F000002300E0DB1E012606FA05F1491E21400F
:1011000099409E40761E16403143F0BC02F04FB924
:101110000CED00E0064900F0070208684FF6FF03F7
:10112000184040EA0220034A10430860704700005C
:101130000CED00E00000FA052DE9F0470F46050030
:1011400061D0434E306800F00700B84209D23068E1
:1011500020F0070038433060306800F00700B842E4
:1011600051D128683B4C810712D5400703D56068F0
:1011700040F4E06060602878000703D5606840F4C0
:10118000605060606068A96820F0F000084360600B
:101190002878C00728D06868012810D02168022864
:1011A00010D0890700292EDA616821F0030101437C
:1011B0006160FFF799FB804641F288390DE02168B4
:1011C0008903EFE78901EDE7FFF78EFBA0EB08014C
:1011D000494502D90320BDE8F0876068696800F0DE
:1011E0000C00B0EB810FEFD1306800F00700B8427F
:1011F0000BD9306820F0070038433060306800F0C9
:101200000700B84201D00120E5E72878400705D55E
:101210006068E96820F4E0600843606028780007AF
:1012200006D56068296920F4605040EAC10060601A
:1012300000F038F86168084AC1F30311515CC840F6
:101240000649086006480068FFF7F8FE0020C2E77C
:1012500000200240001002401C3C000894000020C6
:101260008C0000200448054900684968044AC1F31D
:101270000221515CC84070479400002000100240D9
:101280002C3C00080448054900684968044AC1F339
:10129000C221515CC84070479400002000100240F9
:1012A0002C3C000812A185B00FC98DE80F0014A0D6
:1012B000144A006804905168134801F00C03042B91
:1012C00010D0082B0ED1C1F38343C9031DF80300CE
:1012D0000AD5516804AAC1F34041515C0A4A5043FF
:1012E000B0FBF1F005B0704708494843FAE7000049
:1012F00002030405060708090A0B0C0D0E0F101057
:10130000010200000010024000127A0000093D00B6
:101310002DE9F84F040070D02078C04DC00749D0A7
:101320006868C0F38100012807D06868C0F38100B5
:10133000022809D16868C00306D52868800339D51A
:1013400060680028E7D035E06068B0F5803F0BD0DA
:1013500010B1B0F5A02F11D0286820F4803028609B
:10136000286820F4802002E0286840F4803028605B
:10137000606890B1FFF7B8FA06460AE0286840F4C2
:1013800080202860F0E700BFFFF7AEFA801B6428DA
:1013900073D828688003F7D50CE0FFF7A5FA064656
:1013A00005E000BFFFF7A0FA801B6428F0D828688A
:1013B0008003F7D420789A4E80074FF001094FF050
:1013C000000839D5686810F00C0F07D06868C0F3C2
:1013D0008100022809D16868C00306D42868800704
:1013E00014D52069012808D110E02069B0B1C6F8F1
:1013F0000090FFF779FA074605E00AE1FFF774FA73
:10140000C01B0228C4D828688007F7D528686169FE
:1014100020F0F80040EAC10028600DE0C6F8008026
:10142000FFF762FA074604E0FFF75EFAC01B0228E6
:1014300023D828688007F7D4207800072CD579486E
:10144000A169D9B1C0F80090FFF74EFA074604E051
:10145000FFF74AFAC01B02280FD8686A8007F7D541
:1014600071484FF4FA510068B0FBF1F0009000BFF2
:101470000098411E0091FAD20EE080E0C0F8008092
:10148000FFF732FA074604E0FFF72EFAC01B0228E6
:1014900075D8686A8007F7D42078400760D5E86976
:1014A0000027C00008D4E86940F08050E861E8698E
:1014B000012700F0805000905C480168C90513D4F2
:1014C0000168834641F480710160FFF70DFA82469E
:1014D00006E000BFFFF708FAA0EB0A0064284ED828
:1014E000DBF80000C005F5D5E06801280AD008B196
:1014F000052813D0286A20F001002862286A20F00D
:10150000040002E0286A40F001002862E06841F22D
:10151000883B98B1FFF7E8F982460BE0286A40F073
:1015200004002862EEE700BFFFF7DEF9A0EB0A0136
:1015300059455AD8286A8007F6D50CE0FFF7D4F948
:10154000824605E0FFF7D0F9A0EB0A0159454CD8D7
:10155000286A8007F6D41FB1E86920F08050E8615E
:10156000E06988B36968C1F38101022944D0022887
:10157000C6F8608004D0FFF7B7F9044638E034E0DD
:10158000FFF7B2F9074604E0FFF7AEF9C01B0228E7
:101590002BD828688001F7D4206AB0F5803F05D1A8
:1015A0006868A16820F4003008436860D4E9080145
:1015B0000843696821F4741108436860C6F86090B4
:1015C000FFF792F9044606E025E000BFFFF78CF92B
:1015D000001B022809D828688001F7D51BE000BF4E
:1015E000FFF782F9001B022802D90320BDE8F88F1B
:1015F00028688001F4D40EE00128F7D06868226AD8
:1016000000F48031914204D1616A00F47010884284
:1016100001D00120EAE70020E8E7000000100240C6
:1016200000004242800442429400002000700040CA
:1016300010B5401EB0F1807F01D3012010BD4FF0E6
:10164000E02460610F21601701F0B1FE0020A0616D
:1016500007202061002010BD70B590F83C20012AC1
:1016600026D0012480F83C40022280F83D20036807
:101670005A689D6822F070060A6832435A600D4B22
:1016800002689A4208D0B2F1804F05D00A4B9A42C4
:1016900002D00A4B9A4204D1496825F080031943CD
:1016A000916080F83D40002180F83C10084670BDF4
:1016B000022070BD002C01400004004000080040E2
:1016C00010B5040003D094F83D0010B107E00120EC
:1016D00010BD002084F83C00204600F01FF80220D6
:1016E00084F83D00211D206800F08EFF012084F861
:1016F000460084F83E0084F83F0084F8400084F8F7
:10170000410084F8420084F8430084F8440084F8DF
:10171000450084F83D00002010BD000010B586B0E3
:1017200000210091019102910391224C036822490A
:1017300002222248A34218D18B6943F400638B61D3
:101740008B6903F4006304938B6943F004038B619A
:101750008969039201F0040104918115CDE9001219
:101760006946FEF7C9FF06B010BDB3F1804FFAD14C
:10177000CB6943F00103CB61CB6903F00103049310
:101780008B6943F004038B618969039201F00401C2
:1017900004914FF40041CDE900126946FEF7ACFF19
:1017A0000748416821F4407141F0E06141F48071E3
:1017B0004160D8E7002C01400010024000080140C1
:1017C0000000014070B5044690F83C00012817D095
:1017D000012584F83C50022084F83D00206882688E
:1017E00022F0770222F47F4282600868502830D0CD
:1017F0000DDC20284DD005DC98B310283BD148E003
:10180000022070BD302844D0402834D139E060280F
:1018100028D0702806D0B0F5805F2CD0B0F5005FDE
:1018200029D10AE0CB68D1E90121206800F022FF2C
:101830002068816841F0770109E0CB68D1E9012196
:10184000206800F017FF2068816841F480418160C2
:1018500011E0CA684968206800F01EFF5021206826
:1018600007E016E0CA684968206800F026FF60219A
:10187000206800F009FF84F83D50002084F83C0007
:1018800070BDCA684968206800F006FF40212068E2
:10189000EFE7226801461046EBE7704770B5026833
:1018A00004461068D168536910F00F0F53D003F04D
:1018B000010501F490762E435FD0C20705D0CA051A
:1018C00003D5E26B42F00102E263420705D5DA0775
:1018D00003D0E26B42F00202E263820705D5DA0729
:1018E00003D0E26B42F00402E263020707D501F085
:1018F00020022A4303D0E26B42F00802E263E26B6B
:10190000002A34D0800604D5880602D5204600F08F
:10191000FCFE20684069E16BC0F3801001F0080113
:101920000143204624D000F0E2FE206841694906C8
:101930001AD5416921F040014161606BA0B12D4988
:101940004163606BFEF776FE002810D0606B416B40
:10195000BDE87040084783060FD58B060DD520469D
:10196000BDE8704000F0D1BE2046FFF796FF70BD85
:10197000FFF793FF0020E06370BD03062BD50B0635
:1019800029D594F839002128F6D1A068B0F5805FF8
:1019900001D12069B0B1206A411C21622168007820
:1019A0004860E08C401E0004000CE084E4D1206814
:1019B000C16821F08001C1602068C16841F0400128
:1019C000C16070BD206A0088C0F308005060206AC2
:1019D000801C2062E5E74006F3D54806F1D5D168C2
:1019E000204621F04001D160202184F8391000F018
:1019F00076F870BDDF26000870B5040004D094F8B6
:101A00003900002510B106E0012070BD84F838507F
:101A1000204600F023F8242084F839002068C168AB
:101A200021F40051C160204600F0B6FE2068016933
:101A300021F4904101612068416921F02A0141614E
:101A40002068C16841F40051C160E563202084F83A
:101A5000390084F83A00002070BD000030B585B030
:101A60000024009401940294039400681849884269
:101A70002BD11848C16941F40031C161C16901F439
:101A800000310491816941F0040181618069124D46
:101A900000F0040004900420009002200190032034
:101AA000039069462846FEF727FE0820CDE900048A
:101AB000694628460294FEF71FFE002201212620D7
:101AC000FFF708FB2620FFF7F7FA05B030BD00004E
:101AD0000044004000100240000801407047704779
:101AE000FEE700000148FEF707BF0000D800002015
:101AF0000148FEF763BF0000D800002038B5406AF7
:101B0000002190F83D202B4B46F2A8141B68B3FB34
:101B1000F4F3C3EBC30303EB830300933BB15B1EFE
:101B2000009303681B689B0505D5009BF6E7036CD3
:101B300043F020030364436B03B19962836B03B1E9
:101B4000996203681C6824F480641C604185436BBF
:101B500003B15963836B03B1596303681C6824F0B4
:101B600001041C6090F83D402023602C0BD02824F9
:101B700034EA02020FD080F83D3080F83E1000BFFA
:101B8000FFF74FF838BD80F83D3080F83E10016413
:101B9000FEF7B0FE38BD0268136843F0010313601E
:101BA0000268136843F480631360016380F83D406A
:101BB000E6E700009400002070B5044690F83D0070
:101BC00094F83E10102901D0402906D1222804D1D2
:101BD00021680A6822F400620A60282131EA0002C2
:101BE0004FF000054FF0200626D02168496809050E
:101BF00005D4602803D084F83D6084F83E50256306
:101C000020684168090537D5416821F400614160C9
:101C1000606B3D4990F82120012A11D04163606B2F
:101C2000FEF708FD38B32068016821F0010101606A
:101C300084F83D60606B1CE0256384F83D10DFE7AD
:101C4000A06B4163A06BFEF7F5FCA0B12068416971
:101C5000C943490605D40069616A0870606A401C7E
:101C600060622068016821F00101016084F83D6034
:101C7000A06B416B884710E094F83D10602910D0AC
:101C80004169C943490605D40069616A0870606A00
:101C9000401C60622046FEF7C4FF206CC1071CD1C7
:101CA00015E084F83D6025644169C943490605D4BF
:101CB0000069616A0870606A401C6062206801689F
:101CC00021F0010101602046FEF714FEE5E78107DF
:101CD00003D4410701D4000704D52068416821F4EA
:101CE000E061416094F83D00216C49070BD528283C
:101CF00009D10648E062256384F83D6084F83E50CF
:101D00002046FFF757F870BDFD1A00080000FFFFDE
:101D100010B5C26A438D0168042B06D0438D032B96
:101D200008D0438D022B1DD012E04A6822F4806255
:101D30004A600CE04B6823F480634B60042A06D0B1
:101D4000022A04D001680A6822F480620A600168ED
:101D50000969426A1170416A491C4162418D491EFC
:101D6000418510BD012A30D0102A2ED0042A30D04F
:101D7000022A2ED00A6842F400720A6001680969DA
:101D8000426A1170416A491C4162428D521E42856D
:101D9000026812690A70416A491C4162418D491EFC
:101DA000418501684A6822F440724A60202180F827
:101DB0003D1090F83E200021402A80F83E100CD0C3
:101DC00012210163FEF7F7FF10BD0A6822F480625A
:101DD000D3E70A6842F48062CFE70163FEF7EDFFC4
:101DE00010BD000038B590F83D10222914D1418D66
:101DF000032912D901680969426A1170416A491CB4
:101E00004162418D491E4185418D032904D10068FD
:101E1000416821F48061416038BDC26A022AFBD06A
:101E2000012901D00029F7D1274946F2A813002241
:101E30000968B1FBF3F101EB8101009101682023F6
:101E4000009C641E009422D00C68A405F8D40C6891
:101E500024F480640C6001684C6824F4E0644C60F5
:101E600001680969446A2170416A491C4162418DD7
:101E7000491E418580F83D3090F83E1080F83E20A4
:101E800040291DD012210163FEF795FF38BD046C77
:101E900044F0200404644C6824F4E0644C6001685D
:101EA0000969446A2170416A491C4162418D491E99
:101EB000418580F83D3080F83E20FEF7B2FE38BD07
:101EC0000263FEF77AFF38BD9400002010B5C16AA6
:101ED00090F83D20212A0BD1428D52B1416A02680F
:101EE00009781161416A491C4162418D491E418551
:101EF00010BD00222023082910D020290ED011F572
:101F0000803F0BD001684C6824F4E0644C601121E0
:101F1000016380F83E2080F83D300EE001684C6897
:101F200024F4E0644C6001680C6844F400740C60B4
:101F3000026380F83D3080F83E20FEF73DFF10BD83
:101F400010B590F83D1090F83E30C26A048DB4B1DF
:101F5000212903D0402B11D122290FD1418DE1B38A
:101F600090F83E10402942D0416A02680978116118
:101F7000416A491C4162418D491E418510BD21299C
:101F8000E8D120230021082A13D0202A11D012F5ED
:101F9000803F0ED00268546824F4E064546011223B
:101FA000026380F83E1080F83D3000BFFEF704FF6A
:101FB00010BD0268546824F4E06454600268146838
:101FC00044F400741460016380F83D3090F83E20C2
:101FD00080F83E10402AE9D100E002E0FEF7EEFE74
:101FE00010BD0068416821F48061416010BDBDE80A
:101FF000104000F0F3B8000078B590F83E50C26A87
:10200000046B90F83D6000230168222E73D1066DA9
:102010000EB9402D6FD0056D1DB90569B5F5404F5E
:102020001BD0458D95B3468D484D012E20D0448D53
:10203000022C4DD00C6844F480640C6001684C683C
:10204000240579D5AA4273D0012A71D0082A6FD00D
:10205000102A6DD0202A6BD06EE04A698A690092FE
:102060000A6842F480720A60016D491C016578BDFE
:10207000AA4214D10A6822F480620A6001684A68A0
:10208000120504D50A6822F4806217E0FFE74A6966
:102090008A6900920A6842F400720A6050E0082AD5
:1020A00010D0202A0ED0122C0AD0042A03D0022AE3
:1020B00001D0102AE6D10A6842F480620A603BE04F
:1020C000012ADFD00A6822F480620A600168DEE734
:1020D000042A11D0022A0FD0102A0DD00C6844F423
:1020E00000640C6001684C698C6900940C6824F4ED
:1020F00080640C6008E025E00C6844F480640C60A7
:1021000001684C698969009101684C68240517D5FC
:10211000AA4207D0012A05D0082A03D0102A01D0EC
:10212000202A0DD14A6842F480524A6008E0FFE755
:102130004A6842F480524A6001684A69896900919C
:10214000036578BD48698869009078BD0000FFFF8D
:1021500090F83E10402910D00169B1F5804F19D098
:10216000016DA9B3016D012910D1416C5FF0F1023D
:1021700001F4407142EAD11106E0016D0029416C81
:1021800005D0C9B241F0010100680161704701F05A
:10219000FE01F9E790F83D102129416C09D0C9B240
:1021A00041F0010102681161416B29B1896A49B9A5
:1021B00002E001F0FE01F5E7816B0029E6D0896AB3
:1021C0000029E3D00068416841F400614160704734
:1021D000FFE7416CF02201F44071CBE710B590F8B5
:1021E0003D10026D22B3026D012A2FD0026D022A2A
:1021F0001DD1222931D0428D0AB1212933D0428DFF
:10220000002A14D1212912D101684A6822F4E0621F
:102210004A6001680A6842F400720A6000210163A2
:10222000202280F83D2080F83E10FEF7C7FD10BD4B
:10223000C16C0129816C02D0C1F3072108E002685A
:10224000C9B21161016D891C016510BD816CC9B2F3
:1022500002681161016D491CF6E70068016841F4EC
:102260008071016010BD416A026809781161416A9C
:10227000491C4162418D491E418510BD2DE9F04147
:1022800090F83D40C26A002320261C4F01686FF47D
:102290008065082A01D0202A01D1282C04D0212CC5
:1022A00016D04D61BDE8F081C7624A6822F4E06251
:1022B0004A6001684D6101680A6822F480620A6020
:1022C000036380F83D6080F83E30FEF773FDE9E778
:1022D000C7622122026380F83D6080F83E304A6880
:1022E00022F4E0624A6001684D6101680A6822F4E4
:1022F00080620A60FEF787FED4E700000000FFFF5F
:10230000F8B590F83D6004460068416821F4E0614A
:1023100041602068002541690091016841F0010198
:1023200001602068016821F48061016020684168D3
:10233000090520D5474F222E48D02A2E46D0616B62
:10234000096849686185618D19B1216C41F004010A
:102350002164416821F400614160606BFEF7B6F9C9
:10236000012808D0606B4763606BFEF763F910B11A
:10237000606B416B8847608D08B320684169C94331
:10238000490708D40069616A0870606A401C60628D
:10239000608D401E608520684169C943490608D4A4
:1023A0000069616A0870606A401C6062608D401E4E
:1023B0006085608D18B1206C40F004002064206CB2
:1023C00000B32046BDE8F840FFF7F6BBA16B0968F3
:1023D00049686185618D19B1216C41F00401216466
:1023E000416821F400614160A06BFEF76FF901289C
:1023F000C1D0A06B4763A06BFEF71CF90028BAD0D0
:10240000A06BB6E72A2E06D12563282084F83D006C
:102410002046FEF7F7FD94F83D10202028290DD026
:10242000216B222901D0222E07D1256384F83D009B
:1024300084F83E502046FEF7E5FDF8BD0649E1620E
:10244000256384F83D0084F83E502046FEF7B2FC38
:10245000F8BD0000FD1A00080000FFFF00B585B0C0
:102460000020019003901148816941F020018161B1
:10247000816901F020010491816941F004018161C9
:10248000816901F004010491816941F008018161D1
:102490008069694600F00800049003200090022043
:1024A00002900348FEF728F905B000BD0010024075
:1024B000000C01400D4810B50B4901600C4941600A
:1024C00000214FF480428160C0E9031241618161C3
:1024D000C1610162FEF7AAFB002803D0BDE81040ED
:1024E000FEF7A7B810BD000000540040D80000203F
:1024F000A086010010B586B000241748009401940E
:102500000294039404941349059401604721C0E99F
:1025100001144FF47A71C0E9031444618461FFF738
:10252000CFF808B1FEF785F84FF480500090694667
:102530000948FFF747F908B1FEF77BF8049404A9AE
:1025400005480594FFF788F8002801D0FEF771F8D8
:1025500006B010BD002C01402C01002010B586B043
:1025600000241648009401940294039404944FF0BC
:102570008041059401604721C0E901144FF47A714C
:10258000C0E903148461FFF79BF808B1FEF751F826
:102590004FF48050009069460848FFF713F908B1DE
:1025A000FEF747F8049404A904480594FFF754F88B
:1025B000002801D0FEF73DF806B010BD74010020E0
:1025C0000C4810B50A4901604FF4E1314160002127
:1025D00081600C22C160C0E904128161C161FFF712
:1025E0000BFA002803D0BDE81040FEF722B810BD5A
:1025F00000440040BC010020FEE770477047704770
:10260000FEF702BD70470000F0B50268164B174C8C
:10261000174D4FF08047984205D0B84203D0A042F2
:1026200001D0A84203D122F070064A683243984292
:1026300005D0B84203D0A04201D0A84203D122F471
:102640004074CA6822434C6922F08002224302602F
:102650008A68C2620A688262984201D1096901638C
:1026600001214161F0BD0000002C01400004004048
:102670000008004010B5846842EA032224F47F4435
:102680000A432243826010BD826822F070020A432E
:1026900042F007018160704710B5036A046A24F0B4
:1026A00001040462846924F0F00444EA021423F073
:1026B0000A020A438461026210BD10B5036A23F066
:1026C000100303628369046A23F4704343EA02320D
:1026D00024F0A00343EA01118261016210BD10B52C
:1026E000406A0021C185C184FFF7D7F810BD016899
:1026F000CA6822F49072CA6001684A6922F0010235
:102700004A61202180F83A10704710B590F83A10CD
:10271000222901D0022010BD82684FF480539A42D2
:1027200001D1016921B1816A9A421BD04AB10AE004
:102730000268816A5268C2F308020A80816A891CB1
:1027400008E0026972B10268526802F07F020A7002
:10275000816A491C8162C18D491E0904090CC18529
:1027600003D016E002685268F1E70168CA6822F0F7
:102770002002CA600168CA6822F48072CA600168D7
:102780004A6922F001024A61202180F83A10FFF7DD
:10279000A5F9002010BD000070B50446006801696D
:1027A000E26821F44051114301612169A0680843A6
:1027B000616908432168CA6841F20C639A43024385
:1027C000CA6020684169A26921F4407111434161E6
:1027D0001E492068884202D1FEF754FD01E0FEF751
:1027E00041FD00EBC00101EB001260686421800034
:1027F000B2FBF0F3B3FBF1F36FF018067343B2FBD7
:10280000F0F5B2FBF0F605EB8305322303EB05157B
:10281000B5FBF1F5B6FBF1F605F0F00505EB061595
:10282000B2FBF0F6B2FBF0F0B0FBF1F06FF0180283
:10283000504306EB800003EB0010B0FBF1F0216881
:1028400000F00F002844886070BD0000003801408F
:102850000148FFF723B80000BC010020FEE730B5B7
:102860008FB028216846FDF776FC14210AA8FDF7F1
:1028700072FC01210804CDE9001000240294022515
:102880000491CDE907504FF4E01009906846FEF737
:102890003FFD0F20CDE90A056802CDE90C40022179
:1028A0000AA80E94FEF748FC0FB030BD10B5002208
:1028B000044BFDF73FFDFDF7BDFDBDE81040FDF702
:1028C00009BF000000408F402DE9FC470C468146BF
:1028D00000230A22182100F043FD2D4D2D4E2846DD
:1028E0003146FFF7E3FF0F230A221821484600F084
:1028F00037FD28463146FFF7D9FF01A80090032392
:1029000010221821484600F00FFD9DF80400803881
:10291000FDF782FD6FF007084146FDF7FFFC4FF021
:102920007E573946FDF732FC20609DF8050080385F
:10293000FDF772FD4146FDF7F1FC3946FDF726FC37
:1029400060609DF806008038FDF766FD4146FDF7A2
:10295000E5FC3946FDF71AFCA06000230A22182185
:10296000484600F0FDFC28463146FFF79FFF0A4825
:102970000A22C178807841EA0010C3B21821484683
:1029800000F0EEFC28463146FFF790FFBDE8FC87DB
:102990007B14AE47E17A843F0000002070B5044606
:1029A00000236B22D02100F0DBFC29482949FFF7E6
:1029B0007DFF01236B22D021204600F0D1FC0323B0
:1029C0001A22D021204600F0CBFC04231922D0216A
:1029D000204600F0C5FC1B22D021204600F092FCCE
:1029E0001D4D20F01A001B22697840EAC100C3B2D5
:1029F000D021204600F0B4FC1C22D021204600F05B
:102A000081FC297820F0180040EAC100C3B21C22E2
:102A1000D021204600F0A4FC1D22D021204600F049
:102A200071FC20F00F0040F003031D22D02120464E
:102A300000F096FC22233722D021204600F090FCA3
:102A40002046BDE8704001233822D02100F088BC28
:102A50009A9999999999B93F000000202DE9F74F6B
:102A6000002498B0A146A2462546A34680236B22A7
:102A7000D0210D94189800F073FCC94EC949304616
:102A8000FFF714FF01236B22D021189800F068FC97
:102A900000236C22D021189800F062FC3046C24915
:102AA000FFF704FF00233822D021189800F058FCCB
:102AB00000232322D021189800F052FC00236B221F
:102AC000D021189800F04CFC00232422D021189823
:102AD00000F046FC00236A22D021189800F040FC48
:102AE0000C236A22D021189800F03AFCAF48B04974
:102AF000FFF7DCFE01231A22D021189800F030FCE9
:102B000000231922D021189800F02AFC00231B2250
:102B1000D021189800F024FC00231C22D021189802
:102B200000F01EFC832016904FF480400F9040234D
:102B30006A22D021189800F013FC78232322D02198
:102B4000189800F00DFC9B489B49FFF7AFFE00234F
:102B50002322D021189800F003FC01A80090022342
:102B60007222D021189800F0DFFBBDF804000C2180
:102B700040BAB0FBF1F600272BE001A800900C232F
:102B80007422D021189800F0CFFBBDF804007F1C00
:102B900040BA0FFA80FCBDF80600E24440BA03B226
:102BA000BDF808001D4440BA0FFA80FEBDF80A00C7
:102BB000F34440BA02B2BDF80C00144440BA01B26A
:102BC000BDF80E00894440BA0D9900B20844BFB266
:102BD0000D90B742D1D39AFBF6F795FBF6F59BFB28
:102BE000F6F094FBF6FA99FBF6F80D99002891FBA4
:102BF000F6F60F9901DD441A00E04418CAF100000E
:102C0000C11700EB9170810A8DF8041080088DF8CF
:102C10000500C8F10000C11700EB9170810A8DF822
:102C2000061080088DF807007042C11700EB917004
:102C3000810A8DF8081080088DF809001698FDF7B4
:102C4000F4FB81465046FDF7E7FB4946FDF728FBBC
:102C5000199908604046FDF7DFFB4946FDF720FB68
:102C60001999C84648603046FDF7D6FB4146FDF746
:102C700017FB199901AE4FF00008886002237722F4
:102C8000D0210096189800F04FFB9DF804009DF8A5
:102C90000510000200B20843089002237A22D021D6
:102CA0000096189800F040FB9DF804009DF8051070
:102CB000000200B20843099002237D22D021009631
:102CC000189800F031FB9DF804009DF805100002F3
:102CD00000B2084301210A90CDF85480002008AAD0
:102CE00015AB0E4652F820C01CEA010F00D01E544E
:102CF000401C80B20328F5D3F917089807EB5171EF
:102D0000A0EBE1000890E917099805EB5171A0EBE1
:102D1000E1000990E1170A9804EB5171A0EBE10082
:102D20000A900898000A8DF804009DF8541008983D
:102D300008438DF805000998000A8DF806009DF8F3
:102D40005510099808438DF807000A989DF8561009
:102D5000000A8DF808000A9808438DF809000F98BA
:102D6000FDF763FB06463846FDF756FB3146FDF797
:102D700097FA1A9908602846FDF74EFB3146FDF791
:102D80008FFA1A99354648602046FDF745FB2946DB
:102D9000FDF786FA1A9988601BB0BDE8F08F000035
:102DA0009A9999999999B93F9999C93FB81E85EB14
:102DB00051B88E3F7B14AE47E17AA43F2DE9FF4F17
:102DC00099B09A4691468B46FE4802C8009190E819
:102DD00070000846FDF732FA0E9021460098FDF784
:102DE0002DFA0D9029460098FDF728FA0C903146EF
:102DF0000098FDF723FA21460B900846FDF71EFACE
:102E00000A9029462046FDF719FA099031462046D6
:102E1000FDF714FA294608900846FDF70FFA0690C8
:102E200031462846FDF70AFA314607900846FDF775
:102E300005FA514605900846FDF700FA80464946D6
:102E40000846FDF7FBF9074659460846FDF7F6F92F
:102E50003946FDF79BF94146FDF798F900F092FAE3
:102E6000014610F0FF4F7CD04FF07E50FDF718FA6E
:102E7000804601465846FDF7E1F91A90414648461A
:102E8000FDF7DCF91B9041465046FDF7D7F91C9041
:102E90002B990846FDF7D2F92A9981460846FDF795
:102EA000CDF9299980460846FDF7C8F94146FDF756
:102EB0006DF94946FDF76AF900F064FA014610F031
:102EC000FF4F4ED04FF07E50FDF7EAF9074601461E
:102ED0002998FDF7B3F9299039462A98FDF7AEF9FC
:102EE0002A9039462B98FDF7A9F92B900C99089850
:102EF000FDF74CF90746129001212B98FDF70EFAC9
:102F000083463946FDF79AF981460B990998FDF7F2
:102F10008FF90746139001212A98FDF7FFF93946EA
:102F20001690FDF78BF980464FF07C5A5046069973
:102F3000FDF77EF90599FDF77BF90746149001210D
:102F40002998FDF7EBF939461590FDF777F94146D9
:102F5000FDF71CF94946FDF719F907460D99079841
:102F600000E0CAE1FDF764F901465846FDF766F94D
:102F7000814650460A99FDF75BF911900599FDF7D6
:102F800057F901461698FDF759F980460B990998AB
:102F9000FDF7FCF801461598FDF750F94146FDF79D
:102FA000F5F84946FDF7F2F80146FDF747F9804686
:102FB00039460846FDF742F94146FDF7E7F800F0CB
:102FC000E1F9824606991198FDF732F901460B9016
:102FD0005846FDF733F907460D990798FDF7D6F8DF
:102FE00001460D901698FDF729F980460C9908982E
:102FF000FDF71EF9834659461598FDF71FF941461E
:10300000FDF7C4F83946FDF7C1F8074658460121D7
:10301000FDF784F9814601210D98FDF77FF980467F
:103020000A990E98FDF704F90699FDF701F905993B
:10303000FDF7ACF8099001213846FDF76FF95946C4
:103040000E90FDF7FBF8834601215046149FFDF7D3
:1030500065F982463946FDF7F1F85946FDF796F8CD
:103060000A90DDE90D10FDF7E9F80746504613997F
:10307000FDF7E4F83946FDF789F883460B990E9879
:10308000FDF7DCF8074650461299FDF7D7F83946A8
:10309000FDF77CF8074659462B98FDF7CFF8824696
:1030A00039462A98FDF7CAF85146FDF7C1F882461D
:1030B00041461C98FDF7C2F8019009991B98FDF74D
:1030C000BDF80199FDF7B4F85146FDF75FF80B9094
:1030D00039462998FDF7B2F807460A992B98FDF76B
:1030E000ADF83946FDF7A4F8074609991A98FDF797
:1030F000A5F8824649461C98FDF7A0F85146FDF711
:1031000097F83946FDF742F807460A992A98FDF7DD
:1031100095F8824659462998FDF790F85146FDF7F3
:1031200087F8824649461B98FDF788F88146414654
:103130001A98FDF783F84946FDF77AF85146FDF7EE
:1031400025F821498046002008604860DFF87C901F
:10315000886049460B98FDF771F82699FDF716F837
:10316000824649463846FDF769F82799FDF70EF87B
:10317000279049464046FDF761F82899FDF706F883
:10318000804610484FF0FF317838C068FDF7C6F828
:103190008146099041463046FDF750F8834628465F
:1031A0002799FDF74BF8074684F000405146FDF79C
:1031B00045F83946FDF73CF85946FDF739F84946D8
:1031C00006E0000078000020CC0000200000204134
:1031D000FDF734F80099FCF7D9FF07463046DDF8D3
:1031E00024902799FDF72AF8834641462846FDF7A3
:1031F00025F8049051463846FDF720F80499FCF76D
:10320000C5FF5946FDF714F84946FDF717F8214662
:10321000FCF7BCFF83460998019051463046FDF704
:103220000DF8814641462046FDF708F808903846DB
:103230002799FDF703F80899FCF7FAFF4946FCF7D0
:10324000A5FF0199FCF7FAFF2946FCF79FFF81468D
:103250000998029051462846FCF7F0FF05462046A3
:103260002799FCF7EBFF044641463846FCF7E6FF9A
:103270002146FCF78BFF2946FCF7DAFF0299FCF7A1
:10328000DDFF3146FCF782FF05460146FCF7D6FF1D
:10329000064649460846FCF7D1FF0446594608460B
:1032A000FCF7CCFF804639460846FCF7C7FF41468D
:1032B000FCF76CFF2146FCF769FF3146FCF766FF1F
:1032C00000F060F801464FF07E50FCF7E9FF06463B
:1032D00001463846FCF7B2FF094C3146206058469B
:1032E000FCF7ACFF606031464846FCF7A7FFA060E2
:1032F00031462846FCF7A2FFE0601DB0BDE8F08F24
:10330000780000200EB5012302A8CDE9000305488E
:10331000FDF756FD0348FDF785FC2028FAD19DF8FE
:1033200008000EBDD800002070B586B01C4602AD66
:103330000A9ECDE9005401230848FDF741FD0748E6
:10334000FDF770FC2028FAD1002002E0295C3154FE
:10335000401CA042FADB06B070BD0000D80000207F
:103360000FB583B0012306A8CDE900030448FDF79B
:1033700097FD0348FDF756FC2028FAD107B000BDA1
:10338000D800002000F034BC4100080218BF04201F
:103390000A0E18BF40F001004FF07F4232EA0101EF
:1033A00008BF40F00200012808BF05207047090748
:1033B000090E002804DB00F1E02080F800147047BB
:1033C00000F00F0000F1E02080F8141D704701218B
:1033D000FCF7A4BFFCF7DABE00210846FCF760BF8B
:1033E0006FF05E010807FCF799BF02E008C8121FE2
:1033F00008C1002AFAD170477047002001E001C1DE
:10340000121F002AFBD17047014908607047000075
:103410009800002070B50F4C0D49A068FCF70EFF16
:103420004FF07D55A0642846FFF7ACFFA16CFCF778
:1034300005FFE0640849A068FCF700FF2065284606
:10344000FFF7A0FF216DFCF7F9FE606570BD00007D
:10345000ABAAAA3E00000020610BB63B2DE9F0416B
:1034600004464FF00E4000EB4400B0F1506F204690
:1034700055D84FF0FC41B1EB440F1CD224F0004072
:103480004FF07E51FCF7D7FE4FF0FF31FCF746FFBF
:10349000054600F0ADFB14F0004F1DBF2F4F304E1E
:1034A00080F000402F4F08BF2F4E4FF04041FCF7F7
:1034B000C5FE044605E000273E460146FCF7BEFE79
:1034C00005462A492846FCF7B9FE2949FCF75EFE65
:1034D0002946FCF7B3FE2749FCF758FE2946FCF7BE
:1034E000ADFE2549FCF752FE2946FCF7A7FE23490D
:1034F000FCF74CFE804629462046FCF79FFE4146DD
:10350000FCF79CFE054631462046FCF73FFE294667
:10351000FCF73CFE3946BDE8F041FCF737BE4FF002
:10352000E441B1EB440F08D9FFF72EFF042808BF90
:10353000FFF756FF2046BDE8F0814FF07F41B1EB29
:10354000440F03D2BDE8F041FFF741BF0120FFF770
:103550005BFFBDE8F041FFF73FBF00000000C9BFBF
:1035600022AAFDB90000C93F22AAFD3924FE1C3D54
:10357000C78AD83C1E67383D1B93993DAFAA2A3EA7
:103580002DE9F0474FF0684202EB40030C46054638
:10359000B3F1654F3CBF02EB4102B2F1654F7CD203
:1035A000C0F3C753C1F3C7529A1A1B2A06DD10F0A5
:1035B000004F14BF76487748BDE8F08712F11A0F24
:1035C00017DA11F0004F06D010F0004F0CBF724810
:1035D0007248BDE8F08721462846FCF761FE0446A4
:1035E000FFF7D2FE042808BFFFF7FAFE2046BDE829
:1035F000F0874200B2EB410F25D910F0004F19BF00
:10360000674F684E684F694E224685F00044154664
:103610000A4680F0004110460A1A5200B2F1807F3B
:1036200040D248406249DFF88CA110F0004F18D01A
:103630004FF03F483846FCF7FBFD07465146304601
:10364000FCF7F6FD17E011F0004F04BF00263746E7
:10365000E2D010F0004F19BF574F584E584F594EF7
:10366000DAE74FF07C583846FCF790FD07465146A4
:103670003046FCF78BFD064641462846FCF7DEFD4A
:103680002146FCF783FD824621464046FCF7D6FDE5
:103690002946FCF7D0FD514600E037E0FCF700FE7C
:1036A000044604E021462846FCF7FAFD044601469C
:1036B000FCF7C4FD80464449FCF7C0FD4349FCF7D4
:1036C00065FD4146FCF7BAFD4149FCF75FFD414607
:1036D000FCF7B4FD3F49FCF759FD4146FCF7AEFD50
:1036E0003D49FCF753FD054641462046FCF7A6FD43
:1036F0002946FCF7A3FD3146FCF748FD2146FCF7BF
:1037000045FD3946BDE8F047FCF740BD4FF07F422C
:10371000B2EB400F28BFB2EB410F03D2BDE8F04738
:10372000FFF758BE40EA01035B0008BF44F0FF41C9
:103730000AD0B2EB400F08BFB2EB410F06D125F023
:10374000804024F0804105460C4629E7B2EB400F4B
:1037500012BF5FEA410245F0FF4004F000413FF430
:103760001FAF4A0092EA40033FF51AAF002AACBFF0
:103770004FF09F464FF03E563146FCF75FFD054641
:1037800031462046FCF75AFD04462846214607E705
:10379000DB0FC9BFDB0FC93FDB0F4940DB0F49C05F
:1037A0000000C9BF22AAFDB90000C93F22AAFD3905
:1037B0000060ED3EC30ACE37000049C022AA7DBAA0
:1037C0000000494022AA7D3A2DAD65BD8FB8D53D98
:1037D0000FB511BE61C84C3EA8AAAABE86B0FDF7BF
:1037E0001BFCFFF73CF8FEF739FEFEF763FEFEF721
:1037F00081FEFEF7B3FEFEF7E3FE7522D021EB4813
:10380000FFF780FD712800D0FEE76420FCF762FF1F
:10381000E64880236B22D021FFF7A2FDE448E5496A
:10382000FFF744F8E44AE148A2F10C01FFF716F96A
:10383000C820FCF74FFFDD48FFF7B0F8DE49DB4852
:103840002439FFF741F83220FCF744FFD74C241FFE
:10385000207830B1012807D0022808D003280CD1E5
:1038600008E04FF0625007E04FF0645004E04FF082
:10387000665001E04FF06850A061607830B10128D7
:1038800006D0022806D0032808D105E0CB4804E082
:10389000CB4802E0CB4800E0CB48E061A07810B113
:1038A000012804D101E0C94800E0C9482062C248AB
:1038B000C84918380160C8494160C8498160022080
:1038C00020613A22D021B948FFF71CFDC007F8D08B
:1038D000B64801A9009100F1600606233B22D021E1
:1038E000FFF722FDBDF8040040BA3080BDF80600A5
:1038F00040BA7080BDF8080040BA00B2B0800546FA
:10390000B6F90000FCF788FDA1690F46FCF796FCAC
:103910006062B6F90200FCF77FFD3946FCF78EFCC9
:10392000A0622846FCF778FD3946FCF787FCE06288
:1039300001A900919D48B61D06234322D021FFF71F
:10394000F3FCBDF8040040BA3080BDF8060040BA70
:103950007080BDF8080040BA05B2B580B6F9000025
:10396000FCF75AFDE1690F46FCF768FC2063B6F9E5
:103970000200FCF751FD3946FCF760FC6063284605
:10398000FCF74AFD3946FCF759FC884DA06302223A
:1039900018212846FFF7B6FCC00715D001A80090F3
:1039A0000723032218212846FFF7BEFC9DF80A00D2
:1039B000000709D4B01DBDF804100180BDF8061041
:1039C0004180BDF808108180784D6C35B5F9000054
:1039D000FCF722FD216A0F46FCF730FC764E243EB0
:1039E0003168FCF72BFC8146E063B5F90200FCF777
:1039F00013FD3946FCF722FC7168FCF71FFC80467A
:103A00002064B5F90400FCF707FD3946FCF716FC05
:103A1000B168FCF713FC074660647148E060A16878
:103A2000A06B8A46FCF70AFCDFF8B8B15946FCF7F0
:103A300037FC06465146606BFCF700FC5946FCF724
:103A40002FFC05465146206BFCF7F8FB5946FCF766
:103A500027FC02468DE86402CDE9048704F12401C5
:103A600052480EC9FFF7AAF9504D7435D5F80C909D
:103A7000D5F8008049464046FCF7E0FBD5E90167F0
:103A8000824639463046FCF7D9FB5146FCF77EFBAF
:103A90000121FCF743FC824649460846FCF7CEFB71
:103AA000814639460846FCF7C9FB074631460846B9
:103AB000FCF7C4FB064641460846FCF7BFFB31460F
:103AC000FCF764FB3946FCF7B3FB4946FCF7B0FB57
:103AD00001465046FFF754FDE065A9682868FCF7E9
:103AE000ADFB0646E9686868FCF7A8FB3146FCF7C1
:103AF0009FFB0121FCF712FCFFF7B0FC80F00040B7
:103B0000A065D5E9027841463846FCF797FB60CDC1
:103B1000814631462846FCF791FB4946FCF736FBC7
:103B20000121FCF7FBFB814641460846FCF786FB7A
:103B3000804639460846FCF781FB07463146084671
:103B4000FCF77CFB064629460846FCF777FB314626
:103B5000FCF76EFB3946FCF76BFB4146FCF716FBA6
:103B600001464846FFF70CFD06465846A168FCF79B
:103B700097FB0546A16DFCF761FBA0652846E16D4A
:103B8000FCF75CFB1849FCF753FBE065284631461F
:103B9000FCF754FB206602211448FCF79DFE3220FE
:103BA000FCF798FD6069401C60618AE60400002013
:103BB0009A9999999999B93FC00000200000FA3B61
:103BC00000007A3C0000FA3C00007A3DFFEBBF4069
:103BD000FFEBBF3F0000EB430000F0420000FA4261
:103BE0000AD7A33B0000344300004040000C0140D2
:103BF00070B50546FCF76EFC044620F00040C0F1AD
:103C0000FF40C00F08D025F00040C0F1FF40C00FBA
:103C100004BF0120FFF7F8FB204670BD0000000044
:103C2000000000000102030406070809000000006C
:103C300001020304583C0008000000209C00000022
:103C4000EA330008F43C00089C00002064050000F2
:103C5000FA330008C1F7FFFF000001060000000072
:103C6000DB0F4940000000000100000000000000E0
:103C70000000000000000000000000000000000044
:103C80000000000000000000000000000000000034
:103C90000000000000000000000000000000000024
:103CA0000000000000000000000000000000000014
:103CB0000000000000000000000000000000000004
:103CC00000000000000000000000000000000000F4
:103CD0000000803F00000000000000000000000025
:103CE0000100000010000000000000000024F400AB
:043CF00000000000D0
:04000005080000ED02
:00000001FF
